:1000000061C7000090C700008EC700008CC70000C9
:100010008AC7000088C7000086C7000084C70000A8
:1000200082C700000C9474310C9474310C947431B8
:100030007AC7000078C7000076C7000074C70000C8
:1000400072C7000070C700006EC700006CC70000D8
:100050006AC7000068C7000066C700000C948526C8
:1000600062C700000C9485250C945C255CC70000D9
:100070005AC7000058C7000056C7000054C7000008
:1000800052C7000050C700004EC700004CC7000018
:100090000C9433250C940A2546C700000C940832B2
:1000A00042C7000040C700003EC700003CC7000038
:1000B0003AC7000038C7000036C7000034C7000048
:1000C00032C7000030C700002EC700002CC7000058
:1000D0002AC7000028C7000026C7000024C7000068
:1000E00022C700006D0882088208810882085F0824
:1000F00082088208820861088208820874087F08E2
:100100007D088208820882087B08640A1D1A310B68
:10011000310BC30C1D1AC80FFD0D750F1D1AFB10F6
:10012000C51113131313640ABF161D1A640A69124A
:10013000E913AF0B83143415BF1618164B17461866
:1001400051196619710E5A245D244C2450245624EA
:100150009424612465246B246F24732479247D24E2
:100160008124942487248B248F24572B082C6B2BD9
:100170006B2B802B082C3E2BEC2B9E2B082CA82BBA
:10018000A82BBC2BBC2B572BEC2B082C572BA82BAC
:10019000EC2B6B2BC72BEC2BEC2BEC2BEC2BEC2B4D
:1001A000DC2BEC2BEC2B1010205F0000000000007B
:1001B000000000000000000000000000000000003F
:1001C0000000000000000000000000000000070028
:1001D0000F800F800F800F800F8007000700000046
:1001E0000000070007000700000000000E380E386E
:1001F0000E380E380630000000000000000000003D
:100200000000000000000000000000000C300C3076
:100210000C307FFE7FFE0C300C300C300C307FFE3B
:100220007FFE0C300C300C30000000000240024019
:100230000FF81FF81A401A401FF00FF80258025822
:100240001FF81FF002400240000000000000000004
:100250000E100E300E7000E001C0038007000E701B
:100260000C700870000000000000000000000F008B
:100270001980198019800F000F080F9819F818F0CD
:1002800018E019F00F9800000000000000000700BF
:10029000070007000E000000000000000000000042
:1002A000000000000000000000000000000000F05E
:1002B00001C0038007000E000E000E000E000700B4
:1002C000038001C000F000000000000000000F00EB
:1002D000038001C000E0007000700070007000E05A
:1002E00001C003800F00000000000000000001803A
:1002F0001188099007E007E03FFC3FFC07E007E0BA
:10030000099011880180000000000000000000003A
:1003100000000180018001800FF00FF0018001805A
:10032000018000000000000000000000000000004C
:1003300000000000000000000000000000000000BD
:100340000700070007000E0000000000000000008A
:1003500000000000000000001FF81FF8000000006F
:10036000000000000000000000000000000000008D
:10037000000000000000000000000000000000007D
:100380000700070007000000000000000000000256
:100390000006000E001C0038007000E001C0038061
:1003A00007000E001C0000000000000000000FF01D
:1003B0001C381C781CF81CF81DB81DB81F381F38D5
:1003C0001E381C380FF00000000000000000018003
:1003D000018003801F801F800380038003800380CF
:1003E000038003801FF000000000000000000FE009
:1003F0001C701C380038007000E001C0038007004A
:100400000E381C381FF800000000000000000FE04C
:100410001C701C380038007003C003C00070003826
:100420001C381C700FE0000000000000000000E01D
:1004300001E003E006E00CE018E01FF81FF800E020
:1004400000E000E003F800000000000000001FF8DA
:100450001C001C001C001C001FE01FF0007800386E
:100460001C381C700FE0000000000000000003E0DA
:1004700007000E001C001C001FF01FF81C381C3861
:100480001C381C380FF000000000000000001FFCAA
:100490001C1C1C1C1C1C001C0038007000E001C04F
:1004A00003800380038000000000000000000FF0C4
:1004B0001C381C381C381F3807E007E01CF81C38B3
:1004C0001C381C380FF000000000000000000FF086
:1004D0001C381C381C381C381FF80FF8003800383E
:1004E000007000E007C000000000000000000000F5
:1004F000000003800380038000000000038003806D
:100500000380000000000000000000000000000068
:10051000000003800380038000000000038003804C
:10052000038007000000000000000000007000E0F1
:1005300001C0038007000E001C001C000E00070015
:10054000038001C000E00070000000000000000017
:10055000000000003FFC3FFC000000003FFC3FFCAF
:100560000000000000000000000000001C000E0061
:100570000700038001C000E00070007000E001C0CF
:10058000038007000E001C000000000003C00FF0F5
:100590001E7818380038007000E001C001C000006B
:1005A000000001C001C001C0000000000FF81C1CC9
:1005B0001C1C1C1C1C1C1CFC1CFC1CFC1CFC1C0017
:1005C0001C001C001FF007F800000000000003C022
:1005D00007E00E701C381C381C381C381FF81C38FB
:1005E0001C381C381C3800000000000000001FF000
:1005F0000E380E380E380E380FF00FF00E380E3859
:100600000E380E381FF0000000000000000007F058
:100610000E381C381C001C001C001C001C001C0098
:100620001C380E3807F000000000000000001FE03A
:100630000E700E380E380E380E380E380E380E3852
:100640000E380E701FE000000000000000001FF8D0
:100650000E180E080E000E300FF00FF00E300E00C8
:100660000E080E181FF800000000000000001FF820
:100670000E180E080E000E300FF00FF00E300E00A8
:100680000E000E001F00000000000000000007F038
:100690000E381C381C381C001C001C001CF81C38B0
:1006A0001C380E3807F800000000000000001C7025
:1006B0001C701C701C701C701FF01FF01C701C70D4
:1006C0001C701C701C7000000000000000000FE097
:1006D0000380038003800380038003800380038002
:1006E000038003800FE0000000000000000001FC18
:1006F000007000700070007000700070387038700A
:10070000387038700FE000000000000000001E3854
:100710000E380E700EE00FC00F800F800FC00EE07D
:100720000E700E381E3800000000000000001F0090
:100730000E000E000E000E000E000E000E000E0841
:100740000E180E381FF800000000000000001C1CEE
:100750001E3C1F7C1FFC1FFC1DDC1C9C1C1C1C1C4D
:100760001C1C1C1C1C1C00000000000000001C1CA9
:100770001C1C1E1C1F1C1F9C1DDC1CFC1C7C1C3C10
:100780001C1C1C1C1C1C000000000000000003E0DE
:1007900007F00E381C1C1C1C1C1C1C1C1C1C1C1CCC
:1007A0000E3807F003E000000000000000001FF01A
:1007B0000E380E380E380E380FF00FF00E000E0007
:1007C0000E000E001F00000000000000000003E00B
:1007D0000F780E381C1C1C1C1C1C1C1C1C7C1CFCBC
:1007E0000FF80FF8003800FC0000000000001FF0B8
:1007F0000E380E380E380E380FF00FF00E700E381F
:100800000E380E381E3800000000000000000FF007
:100810001C381C381C381C000FE007F000381C384E
:100820001C381C380FF000000000000000001FFC06
:1008300019CC11C401C001C001C001C001C001C078
:1008400001C001C007F000000000000000001C70A3
:100850001C701C701C701C701C701C701C701C7038
:100860001C701C700FE000000000000000001C70F5
:100870001C701C701C701C701C701C701C701C7018
:100880000EE007C0038000000000000000001C1CF8
:100890001C1C1C1C1C1C1C1C1C9C1C9C1C9C0FF849
:1008A0000FF80770077000000000000000001C70C7
:1008B0001C701C700EE007C00380038007C00EE0B0
:1008C0001C701C701C7000000000000000001C70F8
:1008D0001C701C701C701C700EE007C0038003802D
:1008E000038003800FE000000000000000001FF8FC
:1008F0001C381838107000E001C0038007000E0893
:100900001C181C381FF8000000000000000007F051
:10091000070007000700070007000700070007009F
:100920000700070007F000000000000000001000B2
:1009300018001C000E000700038001C000E00070DA
:100940000038001C0007000000000000000007F055
:100950000070007000700070007000700070007017
:100960000070007007F0000000000000018003C06C
:1009700007E00E701C3800000000000000000000BE
:100980000000000000000000000000000000000067
:100990000000000000000000000000000000000057
:1009A0000000000000007FFF7FFF000000001C002F
:1009B0001C0007000700000000000000000000000D
:1009C0000000000000000000000000000000000027
:1009D0000000000000000FE0007000700FF01C70BD
:1009E0001C701C700FD800000000000000001E00EA
:1009F0000E000E000E000FF00E380E380E380E38B6
:100A00000E380E381BF0000000000000000000004F
:100A10000000000000000FE01C701C701C001C0097
:100A20001C701C700FE0000000000000000000F8C7
:100A30000070007000700FF01C701C701C701C7037
:100A40001C701C700FD800000000000000000000A7
:100A50000000000000000FE01C701C701FF01C0064
:100A60001C701C700FE0000000000000000003E09C
:100A700007700770070007001FE01FE0070007006E
:100A8000070007001FC00000000000000000000079
:100A90000000000000000FD81C701C701C701C703F
:100AA0000FF007F000701C700FE0000000001E0047
:100AB0000E000E000E000EF00F380F380E380E38F4
:100AC0000E380E381E38000000000000000001C083
:100AD00001C001C000000FC001C001C001C001C0C1
:100AE00001C001C00FF8000000000000000000700D
:100AF00000700070000003F0007000700070007063
:100B0000007000701C700CF007E0000000001E0078
:100B10000E000E000E000E380E700EE00FC00EE03C
:100B20000E700E381E3800000000000000000FC0DC
:100B300001C001C001C001C001C001C001C001C0AD
:100B400001C001C00FF8000000000000000000001C
:100B50000000000000001FF81C9C1C9C1C9C1C9C9E
:100B60001C9C1C9C1C9C000000000000000000005D
:100B70000000000000001FE01C701C701C701C7046
:100B80001C701C701C7000000000000000000000C1
:100B90000000000000000FE01C701C701C701C7036
:100BA0001C701C700FE0000000000000000000003E
:100BB0000000000000001BF00E380E380E380E3812
:100BC0000E380FF00E000E001F00000000000000A5
:100BD0000000000000001FB038E038E038E038E0E6
:100BE00038E01FE000E000E001F00000000000003D
:100BF0000000000000001EF00FF80F380E000E007D
:100C00000E000E001F0000000000000000000000A9
:100C10000000000000000FE01C301C300F8003E0DB
:100C2000187018700FE000000000000000000000C5
:100C30000100030007001FF007000700070007007E
:100C40000770077003E000000000000000000000D3
:100C50000000000000001C701C701C701C701C70D8
:100C60001C701C700FD80000000000000000000085
:100C70000000000000001C701C701C701C701C70B8
:100C80000EE007C00380000000000000000000002C
:100C90000000000000001C1C1C1C1C1C1C9C1C9C3C
:100CA0000FF807700770000000000000000000004F
:100CB0000000000000001CE01CE00FC0078007805F
:100CC0000FC01CE01CE0000000000000000000005D
:100CD0000000000000000E380E380E380E380E38B6
:100CE00007F003E000E001C01F80000000000000EA
:100CF0000000000000001FE018E011C003800700A2
:100D00000E201C601FE0000000000000000001F841
:100D100003800380038007001C001C000700038081
:100D20000380038001F800000000000001C001C042
:100D300001C001C001C001C001C001C001C001C0AB
:100D400001C001C001C001C00000000000001F8000
:100D500001C001C001C000E00038003800E001C05F
:100D600001C001C01F8000000000000000001F1C27
:100D70003B9C39DC38F80000000000000000000057
:100D80000000000000000000000030373A30303A28
:100D90003530004A756C2020392032303137000060
:100DA000002100240027002A002D0030003300011C
:100DB000010000040107010A0100000A0B02090CEE
:100DC0000D0E0807030401000000000000000000F1
:100DD0000000000000000000000000000000000013
:100DE00000000000001211100000000000000000D0
:100DF00000000000000000000000000000000000F3
:100E0000002200250028002B002E003100340002B3
:100E1000010000050108010B01000020002300264D
:100E20000029002C002F0032000001000003010601
:100E30000109010505050507050808080802020261
:100E4000020A0A0808040404040101010101010165
:100E5000010303030303030303040707070C0C0C3C
:100E60000C0C0C0C0C020202020606060606060614
:100E7000060B0B0B0B0B0B0B0B01021020200808B1
:100E800010204010204080020102010804020101EC
:100E900002040810204080804020100804020180D5
:100EA000040201804020100804020108040201012C
:100EB0000204081020408001020408102040800035
:100EC000FE37653A11241FBECFEFD1E2DEBFCDBFA2
:100ED00000E00CBF2AE0ACECB2E001C01D92AC3FD8
:100EE000B207E1F712E0A0E0B2E0E8EAFCE700E0D8
:100EF0000BBF02C007900D92AC3CB107D9F717E0C9
:100F0000C1E6D7E000E006C021970109802FFE016D
:100F10000E94023CC036D10780E00807A9F70E9472
:100F20001F360C94433E6CC88F929F92AF92BF9233
:100F3000CF92DF92EF92FF920F931F93CF93DF93A5
:100F4000CDB7DEB72B970FB6F894DEBF0FBECDBF7F
:100F50001092C4031092C5031092C6031092C703E7
:100F600010928203109283031092840310928503DF
:100F70000E9479266B017C014B015C0128EB820EFB
:100F80002BE0921EA11CB11C0E9479266C157D05D8
:100F90008E059F0528F086169706A806B906A0F7C5
:100FA00082E597E09093C3038093C2030E94682870
:100FB0000E94792660938203709383038093840355
:100FC0009093850362E672E08091C2039091C3031F
:100FD0000E9406360E9479266B017C014B015C0160
:100FE0008AE0880E911CA11CB11C0E9479266C1508
:100FF0007D058E059F0528F086169706A806B9067A
:10100000A0F701E0009396030E94682868EE73E061
:1010100080E090E00E9441261092550610925406FE
:1010200010929E061092C00610929C0600939B069A
:101030001092760661E084E10E94D62561E085E1A8
:101040000E94D6258091B9008E7F8093B90080914F
:10105000B9008D7F8093B90088E48093B80085E45F
:101060008093BC000E946C2C90E0880F892F881F11
:10107000990B892B09F4E9C084E792E00E94C62C01
:101080004BE050E063E97DE0CE0101960E94833A97
:10109000CE010A960E948A27082FE9818E2FEE0F33
:1010A000990BAA0BBB0BFC01E154F109E331F105EB
:1010B00048F58827EE58FF4F8F4F0C94023C12E002
:1010C00021C08A81813629F08B818E3621F017E08C
:1010D00019C011E017C016E015C08B81823711F0DE
:1010E00018E010C014E00EC08B81823711F015E0BB
:1010F00009C013E007C019E005C01AE003C01BE0F7
:1011000001C01CE0CE0105960E948A27C82E48E047
:1011100050E06AE87DE0CE0101960E94833ACE015C
:1011200001960E948A27B82ECE0104960E948A2733
:10113000A82ECE0107960E948A27982EDD24D394EC
:10114000D0929D0678E6E72EE092BF0610929E06AA
:101150001092C00660E084E296E00E94812EEAE0F0
:10116000FE2E892D6F2D0E94C73B482F880F480FF8
:10117000440F642F690D84E296E00E94812E8A2D2F
:101180006F2D0E94C73B382F880F380F330F632F06
:101190006A0D84E296E00E94812E8B2D6F2D0E94B5
:1011A000C73B282F880F280F220F622F6B0D84E278
:1011B00096E00E94812E60E084E296E00E94812EFB
:1011C0008C2D6F2D0E94C73B982F880F980F990F79
:1011D000692F6C0D84E296E00E94812E812F6F2D85
:1011E0000E94C73B682F660F860F880F682F610F1C
:1011F00084E296E00E94812E802F6F2D0E94C73BD3
:10120000682F660F680F660F600F84E296E00E94F9
:10121000812E81E00E940F2C0E946C2C182FD092FE
:101220009D06E092BF0610929E061092C0066FE0E7
:1012300084E296E00E94812E612F6F7784E296E02F
:101240000E94812E81E00E940F2C1092DB0A1092E6
:10125000DA0A1092D90A1092D80A1092D70A10927C
:10126000D60A8DE991E09093DD0A8093DC0A8091A3
:10127000CC0A96EF980F943048F02EEC280F2430CB
:1012800028F022EC280F283008F070C02DEB30E059
:101290003093D70A2093D60A2BE931E03093D90A4C
:1012A0002093D80A2CE231E03093DB0A2093DA0A4B
:1012B000943070F02EEC280F243050F022EC280FE0
:1012C000283010F40C94E722A0E0B0E00C94E9225E
:1012D000A8E6B0E0E8E6F0E02081943018F08E5304
:1012E000883010F081E001C084E0822B8C938091E3
:1012F000CC0A96EF980F943058F02EEC280F24303B
:1013000038F022EC280F283030F020E030E005C023
:101310002BE630E002C02DE630E03093D40A209373
:10132000D30A943010F49AEF0BC0823381F08333E8
:1013300081F0843381F092EC980F983070F492EC45
:10134000980F81E001C0880F9A95EAF707C088E0FE
:1013500005C084E003C082E001C081E08093D50A2B
:101360008091DC0A9091DD0A0197F1F78091DA0A09
:101370009091DB0A892B21F18091C3069091C406DC
:10138000EAE0803C9E07E1F0009711F00E94F23104
:101390008091DE0A8E7F8093DE0A1092C106109241
:1013A000C20680EC9AE09093C4068093C306E09155
:1013B000D30AF091D40A90818091D50A892B808339
:1013C00081E080938D0A61E08091AE0A0E9405263B
:1013D00061E08091AF0A0E94052661E08091B00A29
:1013E0000E9405268091B10A8F3F19F061E00E94AA
:1013F00005268091970A813131F0813049F480913E
:10140000980A853029F461E08091B20A0E9405268D
:101410008091970A813079F0813131F09FEF91B955
:10142000803149F497B907C088E18093010180E2D7
:1014300083BB8BE38DB9E0919F0AF091A00A908164
:101440008091AA0A892B808365E070E080E090E0BB
:101450000E944126E0919F0AF091A00A908180911C
:10146000AA0A8095892380836FE070E080E090E095
:101470000E944126E0919F0AF091A00A90818091FC
:10148000AA0A892B80836FE070E080E090E00E94E0
:101490004126E0919D0AF0919E0A90818091A90ACF
:1014A000809589238083E091960A8E2F90E0FC013D
:1014B0003297EE31F10510F00C941D1A8827EB5786
:1014C000FF4F8F4F0C94023C61E070E080E00E947F
:1014D000EA2A64EA78EA83E00E94EA2A60E070E09F
:1014E0008CE00E94EA2A6CE078E08DE00E94EA2A13
:1014F00060E07BE28EE00E94EA2A67EB70E08EE11A
:101500000E94EA2A6FE37BE281E00E94EA2A60E01F
:1015100076E082E00E94EA2A60E070E080E10E94CA
:10152000EA2A60E770E681E10E94EA2A60E070E062
:1015300085E00E94EA2A60E070E086E00E94EA2AE4
:101540006CE17FEE86E10E94EA2A63E070E087E1C9
:101550000E94EA2A63E372E087E00E94EA2A60E0E0
:1015600070E08BE00E94EA2A60E070E08FE00E9469
:10157000EA2A60E070E081E40E94EA2A60E070E01C
:1015800082E40E94EA2A60E070E088E40E94EA2A8D
:101590006FE371E089E40E94EA2A60E070E08AE487
:1015A0000E94EA2A60E070E08BE40E94EA2A60E090
:1015B0007FEE84E40E94EA2A60E070E085E40E9405
:1015C000EA2A6FE371E086E40E94EA2A67E077E0A6
:1015D00080E30E94EA2A64E072E081E30E94EA2A42
:1015E00064E072E082E30E94EA2A62E075E083E34D
:1015F0000E94EA2A67E075E084E30E94EA2A64E038
:1016000072E085E30E94EA2A64E072E086E30E94C9
:10161000EA2A62E075E087E30E94EA2A62E073E06A
:101620008AE30E94EA2A62E073E08BE30E94EA2ADE
:1016300060E070E083E20E94EA2A60E070E084E209
:101640000E94EA2A60E070E885E20E94EA2A60E0EF
:1016500070E08FE40E94EA2A60E070E08EE40C946F
:10166000311560EF78E785EE0E94EA2A60E071E0CC
:1016700081E00E94EA2A60E072E082E00E94EA2AA9
:1016800060E370E183E00E94EA2A60E070E084E0B9
:101690000E94EA2A67E072E088E00E94EA2A60E09D
:1016A00070E089E00E94EA2A60E070E08AE00E942F
:1016B000EA2A60E070E08CE00E94EA2A60E070E0D4
:1016C0008DE00E94EA2A60E070E08FE00E94EA2A42
:1016D00060E070E080E10E94EA2A67E070E081E16A
:1016E0000E94EA2A60E070E082E10E94EA2A60E05B
:1016F00070E083E10E94EA2A61E070E087E00E94E6
:10170000EA2A68EC70E080E090E00E94412660E9FF
:1017100076E180E10E94EA2A67E272E081E10E94BC
:10172000EA2A62E370E080E090E00E9441266DE0EA
:1017300070E082E10E94EA2A62E370E080E090E0DB
:101740000E94412660E072E183E10E94EA2A6AE099
:1017500070E089E20E94EA2A6DE070E07DC060EFEF
:1017600078E785EE0E94EA2A60E071E081E00E945D
:10177000EA2A60E077E082E00E94EA2A60E370E112
:1017800083E00E94EA2A60E070E084E00E94EA2A96
:1017900067E072E088E00E94EA2A60E070E089E099
:1017A0000E94EA2A60E070E08AE00E94EA2A60E093
:1017B00070E08CE00E94EA2A60E070E08DE00E9418
:1017C000EA2A60E070E08FE00E94EA2A60E070E0C0
:1017D00080E10E94EA2A67E070E081E10E94EA2A43
:1017E00060E070E082E10E94EA2A60E070E083E15C
:1017F0000E94EA2A61E070E087E00E94EA2A68EC31
:1018000070E080E090E00E94412660E975E180E1AF
:101810000E94EA2A67E272E081E10E94EA2A62E31A
:1018200070E080E090E00E9441266CE970E082E187
:101830000E94EA2A62E370E080E090E00E94412684
:1018400060E079E183E10E94EA2A63E270E089E2E4
:101850000E94EA2A6EE070E08BE20E94EA2A62E3CC
:1018600070E080E090E00E94412660E070E080E25D
:101870000E94EA2A60E070E081E20E94EA2A60E0C9
:1018800070E080E30E94EA2A64E074E081E30E9451
:10189000EA2A63E070E082E30E94EA2A65E074E0ED
:1018A00085E30E94EA2A68E078E086E30E94EA2A5B
:1018B00067E074E087E30E94EA2A63E073E088E36C
:1018C0000E94EA2A67E077E089E30E94EA2A64E05E
:1018D00075E08CE30E94EA2A68E078E08DE30E94DC
:1018E000EA2A60E070E080E50E94EA2A6FEE70E08C
:1018F00081E50E94EA2A60E070E082E50E94EA2A1F
:101900006FE371E083E50E94EA2A60E077EA80E60F
:101910000E94EA2A61E070E081E60E94EA2A60E023
:1019200070E08AE60E94EA2A60E070E080E80E94A7
:10193000EA2A60E070E081E80E94EA2A60E070E054
:1019400082E80E94EA2A60E070E083E80E94EA2AC6
:1019500060E070E084E80E94EA2A60E070E085E8D8
:101960000E94EA2A60E170E080E90E94EA2A60E0D1
:1019700070E082E90E94EA2A63E371E087E00E9456
:10198000EA2A0C941D1A64E870E086E20E94EA2AB2
:1019900068E270E080E090E00E94412668EB70E031
:1019A00086E20E94EA2A68E270E080E090E00E940D
:1019B00041266CEB70E086E20E94EA2A64E170E066
:1019C00080E090E00E94412660E070E080E60E94A6
:1019D000EA2A66E070E081E60E94EA2A60E070E0B0
:1019E00082E60E94EA2A68EC70E083E60E94EA2A16
:1019F00064E170E080E090E00E94412660E770E0E2
:101A000083E70E94EA2A60E070E080E40E94EA2A0C
:101A100060E470E081E40E94EA2A65E470E082E418
:101A20000E94EA2A61E070E083E40E94EA2A60E60C
:101A300070E084E40E94EA2A65E070E085E40E9498
:101A4000EA2A6CE070E086E40E94EA2A61ED70E028
:101A500087E40E94EA2A65E070E088E40E94EA2AAE
:101A600065E770E080E50E94EA2A61E070E081E5C8
:101A70000E94EA2A67E670E082E50E94EA2A64E1B1
:101A800070E083E50E94EA2A62EF70E084E50E943C
:101A9000EA2A67E070E085E50E94EA2A63E070E0E8
:101AA00086E50E94EA2A69E470E087E50E94EA2A56
:101AB00064E170E080E090E00E94412663E070E025
:101AC0008FE10E94EA2A60E070E080E20E94EA2A48
:101AD00064E270E084E20E94EA2A64E370E085E256
:101AE0000E94EA2A6FE270E083E20E94EA2A64E13F
:101AF00070E080E090E00E94412664E470E088E1BC
:101B00000E94EA2A61E070E081E20E94EA2A60E035
:101B100070E081E00E94EA2A63E070E08CE10E94BC
:101B2000EA2A66E070E089E10E94EA2A64E170E056
:101B300080E090E00E94412664E870E086E20E9426
:101B4000EA2A68E270E080E090E00E94412668EBBB
:101B500070E086E20E94EA2A68E270E080E090E0AD
:101B60000E9441266CEB70E086E20E94EA2A64E162
:101B700070E080E090E00E94412660E070E082E04A
:101B80000E94EA2A60E070E083E00E94EA2A60E0B6
:101B900070E084E00E94EA2A6FEA70E085E00E942B
:101BA000EA2A60E070E086E00E94EA2A60E070E0E5
:101BB00087E00E94EA2A60E070E088E00E94EA2A5A
:101BC0006BED70E089E00E94EA2A64E170E080E059
:101BD00090E00E94412668E070E086E10E94EA2AD7
:101BE00065E070E087E10E94EA2A81E20E94C02A53
:101BF00082E20E94C02A0C941D1A81E10E94C02A30
:101C00006CE070E080E090E00E94412681EB0E9451
:101C1000C02A81E00E94D52A8CE20E94D52A8DE25A
:101C20000E94D52A82EB0E94C02A81E00E94D52A18
:101C30008CE20E94D52A8DE20E94D52A83EB0E9475
:101C4000C02A81E00E94D52A8CE20E94D52A8DE22A
:101C50000E94D52A81E00E94D52A8CE20E94D52AD2
:101C60008DE20E94D52A84EB0E94C02A87E00E9460
:101C7000D52A80EC0E94C02A82EA0E94D52A82E0FE
:101C80000E94D52A84E80E94D52A81EC0E94C02AAD
:101C900085EC0E94D52A82EC0E94C02A8AE00E942C
:101CA000D52A80E00E94D52A83EC0E94C02A8AE8C7
:101CB0000E94D52A8AE20E94D52A84EC0E94C02A7A
:101CC0008AE80E94D52A8EEE0E94D52A85EC0E94D1
:101CD000C02A8EE00E94D52A86E30E94C02A88ECA2
:101CE00073C081E10E94C02A6CE070E080E090E067
:101CF0000E94412681EB0E94C02A81E00E94D52AE1
:101D00008CE20E94D52A8DE20E94D52A82EB0E94A5
:101D1000C02A81E00E94D52A8CE20E94D52A8DE259
:101D20000E94D52A83EB0E94C02A81E00E94D52A16
:101D30008CE20E94D52A8DE20E94D52A81E00E9481
:101D4000D52A8CE20E94D52A8DE20E94D52A84EB06
:101D50000E94C02A87E00E94D52A80EC0E94C02AF7
:101D600082EA0E94D52A82E00E94D52A84E80E9455
:101D7000D52A81EC0E94C02A85EC0E94D52A82ECEB
:101D80000E94C02A8AE00E94D52A80E00E94D52ABB
:101D900083EC0E94C02A8AE80E94D52A8AE20E9427
:101DA000D52A84EC0E94C02A8AE80E94D52A8EEEA9
:101DB0000E94D52A85EC0E94C02A8EE00E94D52A76
:101DC00086E30E94C02A80EC0E94D52A80EE0E9401
:101DD000C02A8FE00E94D52A8AE10E94D52A8FE08E
:101DE0000E94D52A88E10E94D52A8FE20E94D52A36
:101DF00088E20E94D52A80E20E94D52A82E20E94CF
:101E0000D52A8FE10E94D52A8BE10E94D52A83E250
:101E10000E94D52A87E30E94D52A80E00E94D52A15
:101E200087E00E94D52A82E00E94D52A80E10E94A4
:101E3000D52A81EE0E94C02A8FE00E94D52A8BE12C
:101E40000E94D52A8FE00E94D52A87E10E94D52AD8
:101E500083E30E94D52A8CE20E94D52A89E20E945F
:101E6000D52A8EE20E94D52A80E30E94D52A80E3FB
:101E70000E94D52A89E30E94D52A8FE30E94D52AA1
:101E800080E00E94D52A87E00E94D52A83E00E9444
:101E9000D52A80E10E94D52A8AE20E94C02A80E0E9
:101EA0000E94D52A80E00E94D52A80E00E94D52A8F
:101EB0008FE70E94D52A8BE20E94C02A80E00E9410
:101EC000D52A80E00E94D52A80E00E94D52A8FE999
:101ED0000E94D52A80EF0E94C02A81E00E94D52A64
:101EE00086EF0E94C02A80E098C681E00E94C02A46
:101EF00085E20E94C02A80E40E94D52A81E10E94E6
:101F0000C02A6AE070E080E090E00E94412680E212
:101F10000E94C02A88E30E94C02A89E20E94C02A47
:101F200083E10E94C02A86E30E94C02A80E60E94C4
:101F3000D52A8AE30E94C02A85E00E94D52A8AE237
:101F40000E94C02A80E00E94D52A8FE70E94D52AED
:101F500084EB0E94C02A83E00E94D52A88E00E9478
:101F6000D52A8BE00E94D52A8EE00E94D52A8AEBE2
:101F70000E94C02A87E00E94D52A8DE00E94D52ABF
:101F80008BE20E94C02A80E00E94D52A8FE7FAC126
:101F900083E80E94C02A82E00E94D52A85E80E9438
:101FA000C02A83E00E94D52A8BE80E94C02A81E0E3
:101FB0000E94D52A8CE80E94C02A83E90E94D52A73
:101FC00081E90E94C02A81E00E94D52A83E80E940C
:101FD000C02A80E00E94D52A8EE30E94C02A80EBAE
:101FE0000E94D52A8FE30E94C02A83E00E94D52A4E
:101FF00080E40E94C02A80E10E94D52A81E40E94E8
:10200000C02A86E50E94D52A82E40E94C02A83E184
:102010000E94D52A83E40E94C02A86E40E94D52A21
:1020200084E40E94C02A83E20E94D52A85E40E94AB
:10203000C02A86E70E94D52A86E40E94C02A80E052
:102040000E94D52A87E40E94C02A8EE50E94D52AE4
:1020500088E40E94C02A8FE40E94D52A89E40E9465
:10206000C02A80E40E94D52A87E10E94C02A81E923
:102070000E94D52A8BE20E94C02A89EF0E94D52AAD
:102080006AE070E080E090E00E9441268BE10E94CF
:10209000C02A84E10E94D52A8AE10E94C02A81E1F7
:1020A0000E94D52A8CE10E94C02A86E00E94D52A8F
:1020B0008FE10E94C02A82E40E94D52A64E170E088
:1020C00080E090E00E94412689E10E94C02A8AE0D7
:1020D0000E94D52A89E10E94C02A8AE10E94D52A5D
:1020E00068E270E080E090E00E94412689E10E9471
:1020F000C02A82E10E94D52A68E270E080E090E088
:102100000E9441268EE10E94C02A87E20E94D52AC1
:1021100064E670E080E090E00E94412684E20E9444
:10212000C02A80E60E94D52A8DE30E94C02A80E45E
:102130000E94D52A84E30E94C02A88E30E94D52AFF
:1021400085E30E94C02A88E30E94D52A84E20E9487
:10215000C02A88E30E94D52A68E270E080E090E01F
:102160000E94412684E20E94C02A8CE30E94D52A64
:1021700086E10E94C02A8CE10E94D52A81E00E945B
:10218000C02A86E00E94D52A85E50E94C02A80E008
:102190000E94D52A82E00E94C02A80E00E94D52AAF
:1021A00083E00E94C02A80E00E94D52A84E00E9439
:1021B000C02A80E00E94D52A85E00E94C02A8FEEC6
:1021C0000E94D52A86E00E94C02A80E00E94D52A7B
:1021D00087E00E94C02A80E00E94D52A88E00E9401
:1021E000C02A81E00E94D52A89E00E94C02A8FE897
:1021F0000E94D52AFDCC82EE0E94C02A83E20E9472
:10220000D52A82E00E94D52A84E50E94D52A80EE54
:102210000E94C02A81E00E94D52A6AE070E080E036
:1022200090E00E94412680EE0E94C02A83E00E9436
:10223000D52A6AE070E080E090E00E94412681E0CB
:102240000E94C02A64E670E080E090E00E9441268F
:1022500086EE0E94C02A81E00E94D52A8FE10E946A
:10226000D52A8FEF0E94D52A80EB0E94C02A80E2F7
:102270000E94D52A80E00E94D52A81E00E94D52ABA
:102280008FED0E94D52A81E00E94D52A8FE00E941E
:10229000D52A80E00E94D52A84EB0E94C02A82E0E1
:1022A0000E94D52A83E10E94D52A80E00E94D52A87
:1022B00088E00E94D52A8BE20E94D52A80E00E9405
:1022C000D52A82E00E94D52A80E00E94D52A86EB9A
:1022D0000E94C02A81E00E94D52A80E20E94D52A6D
:1022E00080E00E94D52A84E00E94D52A8CE00E94DA
:1022F000D52A80E00E94D52A82E00E94D52A8AEB66
:102300000E94C02A8FE00E94D52A88EB0E94C02A32
:1023100087E00E94D52A81E00E94D52A86E30E94A8
:10232000C02A82E20E94D52A80EF0E94C02A83E060
:102330000E94D52A61E070E080E090E00E94412692
:102340006FE071E08FED91E00E94132B89E20E9413
:10235000C02A8EEB0E94C02A86E00E94D52A80EF18
:102360000E94D52A81E00E94D52A80EF0E94D52ABA
:1023700080E00E94D52A80E00E94D52A80ED0E944C
:10238000C02A8DE00E94D52A89C782EE0E94C02A09
:102390008EE10E94D52A82E00E94D52A84E50E941F
:1023A000D52A80EE0E94C02A81E00E94D52A6AE0E8
:1023B00070E080E090E00E94412680EE0E94C02AFA
:1023C00083E00E94D52A6AE070E080E090E00E94FD
:1023D000412681E00E94C02A64E670E080E090E03F
:1023E0000E94412686EE0E94C02A83E00E94D52AE0
:1023F0008FEF0E94D52A8FEF0E94D52A80EB0E9492
:10240000C02A84E20E94D52A80E00E94D52A83E077
:102410000E94D52A8FE10E94D52A81E00E94D52A08
:102420008FED0E94D52A80E00E94D52A84EB0E947D
:10243000C02A83E00E94D52A80EA0E94D52A80E043
:102440000E94D52A8EE20E94D52A80E30E94D52AD6
:1024500080E00E94D52A8FE00E94D52A80E00E9469
:10246000D52A86EB0E94C02A82E00E94D52A8DE000
:102470000E94D52A80E00E94D52A80E10E94D52AB8
:1024800080E10E94D52A80E00E94D52A88E00E943F
:10249000D52A8AEB0E94C02A8FE00E94D52A88EBB9
:1024A0000E94C02A87E00E94D52A81E00E94D52A96
:1024B00086E30E94C02A82E20E94D52A80EF0E9411
:1024C000C02A83E00E94D52A61E070E080E090E0BD
:1024D000A3C082EE0E94C02A83E20E94D52A82E035
:1024E0000E94D52A84E00E94D52A80EE0E94C02A4C
:1024F00081E00E94D52A6AE070E080E090E00E94CE
:10250000412680EE0E94C02A83E00E94D52A6AE01C
:1025100070E080E090E00E94412681E00E94C02AA5
:1025200064E670E080E090E00E94412686EE0E9422
:10253000C02A84E00E94D52A83E90E94D52A80EE31
:102540000E94D52A80EB0E94C02A80E00E94D52AF2
:1025500080E00E94D52A83E00E94D52A8FE10E9464
:10256000D52A81E00E94D52A8FED0E94D52A80E0ED
:102570000E94D52A84EB0E94C02A83E00E94D52ABB
:1025800080EA0E94D52A80E00E94D52A8EE20E942D
:10259000D52A80E30E94D52A80E00E94D52A8FE0C8
:1025A0000E94D52A80E00E94D52A86EB0E94C02A8C
:1025B00082E00E94D52A8DE00E94D52A80E00E9408
:1025C000D52A80E10E94D52A80E10E94D52A80E0A8
:1025D0000E94D52A88E00E94D52A8AEB0E94C02A50
:1025E00085E00E94D52A88EB0E94C02A87E00E94DD
:1025F000D52A81E00E94D52A86E30E94C02A82E281
:102600000E94D52A80EF0E94C02A83E00E94D52A2A
:102610006AE070E080E090E00E9441266FED71E09A
:102620008FE193E091CE64E070E281E10E94EA2ABA
:1026300060E07CEC83E10E94EA2A60E076E285E1DA
:102640000E94EA2A6AE275E284E10E94EA2A63E3D0
:1026500070E082E10E94EA2A64E07CEC83E10E945F
:10266000EA2A66E07CEC83E10E94EA2A6FE47CECD3
:1026700083E10E94EA2A6FE477E683E10E94EA2A76
:1026800063E070E281E10E94EA2A69E076E280E399
:102690000E94EA2A6CE274E281E30E94EA2A63E281
:1026A0007FE182E30E94EA2A65E274E283E30E940A
:1026B000EA2A66E272E284E30E94EA2A63E275E2B1
:1026C00085E30E94EA2A6AE17CE186E30E94EA2A25
:1026D0006DE173E187E30E94EA2A61E17BE088E330
:1026E0000E94EA2A60E172E189E30E94EA2A65E138
:1026F00073E18AE30E94EA2A69E176E38BE30E94B0
:10270000EA2A60E07DE08CE30E94EA2A6DE070E056
:102710008DE30E94EA2A67E070E086E10E94EA2ADF
:1027200063E170E082E00E94EA2A63E070E083E007
:102730000E94EA2A67E271E081E00E94EA2A63E0EF
:1027400073E088E00E94EA2A6BE070E08AE00E9471
:10275000EA2A63E070E08BE00E94EA2A60E070E021
:102760008CE00E94EA2A60E070E081E40E94EA2A9C
:1027700060E070E080E50E94EA2A65E070E080E6B3
:102780000E94EA2A6BE070E080E70E94EA2A60E09B
:1027900070E081E70E94EA2A60E070E088E70E942A
:1027A000EA2A60E070E08AE70E94EA2A67E070E0C7
:1027B00089E70E94EA2A61E570E087E00E94EA2A40
:1027C00063E570E087E00E94EA2A60E070E089E754
:1027D00048C181E10E94C02A64E170E080E090E09D
:1027E0000E94412680ED0E94C02A87E00E94D52ADF
:1027F00082E40E94D52A88E10E94D52A81ED0E94B8
:10280000C02A80E00E94D52A87E00E94D52A80E174
:102810000E94D52A82ED0E94C02A81E00E94D52A1A
:1028200082E00E94D52A80EC0E94C02A80E10E94AA
:10283000D52A8BE30E94D52A80E00E94D52A82E027
:102840000E94D52A81E10E94D52A85EC0E94C02AE7
:1028500083E00E94D52A88EC0E94C02A80E00E9472
:10286000D52A82E30E94D52A86E30E94D52A85E4F0
:102870000E94D52A86E00E94D52A86E10E94D52AA8
:1028800087E30E94D52A85E70E94D52A87E70E9420
:10289000D52A84E50E94D52A8CE00E94D52A80E0C2
:1028A0000E94D52A86E30E94C02A8AE00E94D52A87
:1028B0008AE30E94C02A85E50E94D52A8AE20E9406
:1028C000C02A80E00E94D52A80E00E94D52A81E0BB
:1028D0000E94D52A8FE30E94D52A8BE20E94C02A4B
:1028E00080E00E94D52A80E00E94D52A81E00E94E3
:1028F000D52A80EE0E94D52A68E770E080E090E05B
:102900000E94412692C16AE170E081E10E94EA2AB8
:1029100061E271E382E10E94EA2A6CE670E083E101
:102920000E94EA2A69E472E484E10E94EA2A60E0F3
:1029300078E080E10E94EA2A6AE070E080E090E0BE
:102940000E9441266AE171E081E10E94EA2A6AE080
:1029500070E080E090E00E9441266AE173E081E14E
:102960000E94EA2A6AE070E080E090E00E9441263E
:102970006AE177E081E10E94EA2A6AE070E080E0A3
:1029800090E00E9441266AE17FE081E10E94EA2A0C
:102990006AE070E080E090E00E9441266AE37FE018
:1029A00081E10E94EA2A6EE170E080E090E00E94FE
:1029B00041266CE171E081E00E94EA2A60E071E06A
:1029C00082E00E94EA2A60E370E183E00E94EA2A42
:1029D00060E070E087E00E94EA2A68E078E088E042
:1029E0000E94EA2A60E071E18BE00E94EA2A60E03E
:1029F00070E08CE00E94EA2A61E074E18FE00E94BE
:102A0000EA2A60E070E085E10E94EA2A60E070E076
:102A100080E20E94EA2A60E070E081E20E94EA2AF5
:102A20006FEA70E086E30E94EA2A60E070E087E3E4
:102A30000E94EA2A6BED70E088E30E94EA2A60E0D7
:102A400070E089E30E94EA2A61E07BE08FE00E9467
:102A5000EA2A66E170E087E00E94EA2A67E170E016
:102A600087E00E94EA2AC4C881E10E94C02A68E780
:102A700070E080E090E00E94412681EB0E94C02A35
:102A800085E00E94D52A8CE30E94D52A8CE30E941F
:102A9000D52A82EB0E94C02A85E00E94D52A8CE3C9
:102AA0000E94D52A8CE30E94D52A83EB0E94C02A7B
:102AB00085E00E94D52A8CE30E94D52A8CE30E94EF
:102AC000D52A85E00E94D52A8CE30E94D52A8CE382
:102AD0000E94D52A84EB0E94C02A83E00E94D52A56
:102AE00080EC0E94C02A88E20E94D52A88E00E94D9
:102AF000D52A84E00E94D52A81EC0E94C02A80EC6D
:102B00000E94D52A82EC0E94C02A8DE00E94D52A1C
:102B100080E00E94D52A83EC0E94C02A8DE80E94A2
:102B2000D52A8AE20E94D52A84EC0E94C02A8DE828
:102B30000E94D52A8EEE0E94D52A85EC0E94C02ADA
:102B40008AE10E94D52A86E30E94C02A80EC0E9476
:102B5000D52A80EE0E94C02A83E00E94D52A82E214
:102B60000E94D52A87E00E94D52A8AE00E94D52AB1
:102B70008EE20E94D52A80E30E94D52A85E20E9437
:102B8000D52A8AE20E94D52A88E20E94D52A86E2C6
:102B90000E94D52A8EE20E94D52A8AE30E94D52A75
:102BA00080E00E94D52A81E00E94D52A83E00E941D
:102BB000D52A83E10E94D52A81EE0E94C02A84E0B2
:102BC0000E94D52A86E10E94D52A86E00E94D52A55
:102BD0008DE00E94D52A8DE20E94D52A86E20E94CD
:102BE000D52A83E20E94D52A87E20E94D52A87E26D
:102BF0000E94D52A85E20E94D52A8DE20E94D52A1C
:102C00008BE30E94D52A80E00E94D52A81E00E94B1
:102C1000D52A84E00E94D52A83E10E94D52A8AE33E
:102C20000E94C02A85E00E94D52A89E20C94F90D01
:102C300081E10E94C02A64E170E080E090E00E949F
:102C4000412688E20E94C02A65E070E080E090E0C2
:102C50000E9441268FEC0E94C02A80E00E94D52A63
:102C600083E80E94D52A80E30E94D52A8DEE0E9437
:102C7000C02A84E60E94D52A83E00E94D52A82E1F8
:102C80000E94D52A81E80E94D52A88EE0E94C02A97
:102C900085E80E94D52A81E00E94D52A89E70E9412
:102CA000D52A8BEC0E94C02A89E30E94D52A8CE2A7
:102CB0000E94D52A80E00E94D52A84E30E94D52A6A
:102CC00082E00E94D52A87EF0E94C02A80E20E94FB
:102CD000D52A8AEE0E94C02A80E00E94D52A80E090
:102CE0000E94D52A80EC0E94C02A86E20E94D52A42
:102CF00081EC0E94C02A81E10E94D52A85EC0E94C5
:102D0000C02A85E30E94D52A8EE30E94D52A87EC4B
:102D10000E94C02A8EEB0E94D52A81EB0E94C02A15
:102D200080E00E94D52A8BE10E94D52A86EB0E9482
:102D3000C02A8AE00E94D52A82E80E94D52A87E22A
:102D40000E94D52A80E00E94D52A87EB0E94C02AE3
:102D500087E00E94D52A8AE30E94C02A85E50E9466
:102D6000D52A86E30E94C02A88E40E94D52A89E2F7
:102D70000E94C02A65E070E080E090E05CC38BECCC
:102D80000E94C02A89E30E94D52A8CE20E94D52A9B
:102D900080E00E94D52A84E30E94D52A82E00E9426
:102DA000D52A8FEC0E94C02A80E00E94D52A81ECAF
:102DB0000E94D52A80E30E94D52A88EE0E94C02A6C
:102DC00085E80E94D52A80E00E94D52A88E70E94E3
:102DD000D52A8AEE0E94C02A80E00E94D52A80E08F
:102DE0000E94D52A8DEE0E94C02A84E60E94D52A30
:102DF00083E00E94D52A82E10E94D52A81E80E94C0
:102E0000D52A87EF0E94C02A80E20E94D52A80EC52
:102E10000E94C02A83E20E94D52A81EC0E94C02A27
:102E200080E10E94D52A85EC0E94C02A8EE30E9490
:102E3000D52A88E20E94D52A87EC0E94C02A86E81B
:102E40000E94D52A86E30E94C02A88E40E94D52ADF
:102E50008AE30E94C02A85E50E94D52A81EB0E9460
:102E6000C02A80E00E94D52A88E10E94D52A86EBFC
:102E70000E94C02A88E00E94D52A82E80E94D52AB2
:102E800087E20E94D52A81E10E94C02A68E770E0AB
:102E900080E090E0FEC180EB0E94C02A8EE10E949B
:102EA000D52A80EB0E94C02A80E00E94D52A83EBBD
:102EB0000E94C02A82E00E94D52A80E00E94D52A82
:102EC00080E00E94D52A80E10E94D52A84EB0E94EE
:102ED000C02A80E00E94D52A80EC0E94C02A83E0AC
:102EE0000E94D52A8BE30E94D52A80E00E94D52A31
:102EF00080E00E94D52A80E00E94D52A81E00E94CD
:102F0000D52A80E00E94D52A83E40E94D52A81EC4C
:102F10000E94C02A88E00E94D52A85E10E94D52A15
:102F200088E00E94D52A88E00E94D52A84EC0E947D
:102F3000C02A85E10E94D52A83E00E94D52A83E039
:102F40000E94D52A81E00E94D52A86EC0E94C02AE0
:102F500082E00E94D52A88EC0E94C02A8CE00E9460
:102F6000D52A85E00E94D52A8AE00E94D52A8BE6E0
:102F70000E94D52A84E00E94D52A86E00E94D52AA4
:102F800085E10E94D52A80E10E94D52A80E00E9436
:102F9000D52A80E60E94D52A86E30E94C02A8AE0CC
:102FA0000E94D52A8CE00E94C02A85E50E94D52A7D
:102FB0008AE30E94C02A85E50E94D52A88E30E9400
:102FC000C02A80ED0E94C02A87E00E94D52A87E0AF
:102FD0000E94D52A84E10E94D52A82EA0E94D52A3D
:102FE00081ED0E94C02A83E00E94D52A8AE50E94D2
:102FF000D52A80E10E94D52A82ED0E94C02A83E072
:103000000E94D52A84E00E94D52A84E00E94D52A15
:1030100081E10E94C02A66E970E080E090E00E94B1
:1030200041268AE20E94C02A80E00E94D52A80E0E0
:103030000E94D52A81E00E94D52A8FED0E94D52AD0
:103040008BE20E94C02A80E00E94D52A80E00E9484
:10305000D52A81E00E94D52A8FE30E94D52A64E612
:1030600070E080E090E00E94412689E20E94C02A40
:103070006EE170E080E090E00E9441268CE20E94C8
:10308000C02A6EE170E080E090E0D5C181E10E944D
:10309000C02A62E370E080E090E00E94412682EF67
:1030A0000E94C02A8CE10E94D52A83EA0E94D52A78
:1030B00082E30E94D52A82E00E94D52A82EB0E94F8
:1030C000D52A82E10E94D52A8FEF0E94D52A82E17B
:1030D0000E94D52A80E00E94D52A81EF0E94C02A52
:1030E00086E30E94D52A84EA0E94D52A88EF0E94AE
:1030F000C02A81E20E94D52A84E00E94D52A89EF65
:103100000E94C02A80E00E94D52A88E00E94D52A29
:1031100080EC0E94C02A8DE00E94D52A8DE00E949A
:10312000D52A81EC0E94C02A83E40E94D52A80E03F
:103130000E94D52A82EC0E94C02A80E00E94D52AF3
:1031400085EC0E94C02A80E00E94D52A88E40E9473
:10315000D52A86EB0E94C02A80E00E94D52A82E20E
:103160000E94D52A8BE30E94D52A80EE0E94C02AB5
:103170008FE00E94D52A84E20E94D52A8CE10E9429
:10318000D52A8AE00E94D52A8FE00E94D52A88E0BD
:103190000E94D52A83E40E94D52A88E80E94D52A75
:1031A00082E30E94D52A8FE00E94D52A80E10E9406
:1031B000D52A86E00E94D52A8FE00E94D52A87E092
:1031C0000E94D52A80E00E94D52A81EE0E94C02A62
:1031D0008FE00E94D52A88E30E94D52A80E30E94CE
:1031E000D52A89E00E94D52A8FE00E94D52A8FE057
:1031F0000E94D52A8EE40E94D52A87E70E94D52A0C
:103200008CE30E94D52A87E00E94D52A80E10E94A3
:10321000D52A85E00E94D52A83E20E94D52A8BE137
:103220000E94D52A80E00E94D52A80E20E94C02A0E
:1032300080E00E94D52A86E30E94C02A8AE00E948C
:10324000D52A8AE30E94C02A85E50E94D52A8AE20F
:103250000E94C02A80E00E94D52A80E00E94D52AE0
:1032600081E00E94D52A8FED0E94D52A8BE20E9430
:10327000C02A80E00E94D52A80E00E94D52A81E001
:103280000E94D52A8FE30E94D52A62E370E080E095
:1032900090E00E94412689E20E94C02A8CE20C94B0
:1032A000F90D80918D0A813019F410928D0A03C0B6
:1032B00081E080938D0A8FE00E94C02A60E170E077
:1032C00081E00E94EA2A8FE00C94F90D89EB0E94BC
:1032D000C02A8FEF0E94D52A83E80E94D52A83E571
:1032E0000E94D52A80EB0E94C02A8CE30E94D52A36
:1032F00081E00E94D52A86EB0E94C02A84E90E94C0
:10330000D52A8CE60E94D52A80E50E94D52A81EB39
:103310000E94C02A80E00E94D52A81E00E94D52A1E
:103320008BE10E94D52A83E00E94D52A81E00E9489
:10333000D52A88E00E94D52A87E70E94D52A89E805
:103340000E94D52A80EE0E94C02A80E50E94D52ADC
:1033500087E70E94D52A80E40E94D52A88E00E944F
:10336000D52A8FEB0E94D52A80E00E94D52A83E0DF
:103370000E94D52A8FE00E94D52A80E00E94D52A9B
:1033800081E00E94D52A83E70E94D52A80E00E942E
:10339000D52A82E70E94D52A83E00E94D52A80EBB5
:1033A0000E94D52A8FE00E94D52A88E00E94D52A63
:1033B00080E00E94D52A8FE00E94D52A8AE30E94ED
:1033C000C02A85E00E94D52A86E30E94C02A80ECAC
:1033D0000E94D52A81E10E94C02A66E970E080E05F
:1033E00090E00E94412689E20E94C02A66E970E0CE
:1033F00080E090E00E9441268DE20E94C02A10E009
:10340000812F0E94D52A1E5F1034D1F710E0812F42
:103410000E94D52A1F5F1034D1F710E0812F0E943F
:10342000D52A1E5F1034D1F78CE20E94C02A66E9CB
:1034300070E080E090E00E944126E0919D0AF091CA
:103440009E0A90818091A90A892B80838FEF8093B7
:10345000890A80938A0A10928B0A10928C0A109221
:10346000B90A1092B40A1092B30A61E088E00E948F
:10347000052661E088E00E94D625E0919D0AF09142
:103480009E0A90818091A90A80958923808340912A
:103490008D0A8091920A9091930A20918E0A309120
:1034A0008F0A411103C0BC01C90101C0B9010E94CA
:1034B000132B8091970A813049F0E091990AF0919D
:1034C0009A0A90818091A70A892B8083E091970ABC
:1034D00040918E0A50918F0A6091900A7091910AE2
:1034E0008091920A9091930AA091940AB091950AC2
:1034F000E03109F022C39A01AB012F5F3F4F4F4FDC
:103500005F4FBC01CD016F5F7F4F8F4F9F4F0E9478
:103510007D3B6B017C0112B818B820E130E040E03F
:1035200050E00E94E63B49015A0180E090E0DC0156
:1035300088159905AA05BB050CF034C1E0919B0ADA
:10354000F0919C0A30812091A80A209523232083A2
:10355000E0919B0AF0919C0A30812091A80A232BCC
:103560002083E0919B0AF0919C0A30812091A80A67
:10357000209523232083E0919B0AF0919C0A3081BF
:103580002091A80A232B2083E0919B0AF0919C0AAA
:1035900030812091A80A209523232083E0919B0A63
:1035A000F0919C0A30812091A80A232B2083E0917E
:1035B0009B0AF0919C0A30812091A80A2095232330
:1035C0002083E0919B0AF0919C0A30812091A80A07
:1035D000232B2083E0919B0AF0919C0A308120915B
:1035E000A80A209523232083E0919B0AF0919C0A4E
:1035F00030812091A80A232B2083E0919B0AF0912F
:103600009C0A30812091A80A209523232083E091F1
:103610009B0AF0919C0A30812091A80A232B2083D9
:10362000E0919B0AF0919C0A30812091A80A209594
:1036300023232083E0919B0AF0919C0A3081209102
:10364000A80A232B2083E0919B0AF0919C0A3081E9
:103650002091A80A209523232083E0919B0AF091D2
:103660009C0A30812091A80A232B2083E0919B0A99
:10367000F0919C0A30812091A80A20952323208371
:10368000E0919B0AF0919C0A30812091A80A232B9B
:103690002083E0919B0AF0919C0A30812091A80A36
:1036A000209523232083E0919B0AF0919C0A30818E
:1036B0002091A80A232B2083E0919B0AF0919C0A79
:1036C00030812091A80A209523232083E0919B0A32
:1036D000F0919C0A30812091A80A232B2083E0914D
:1036E0009B0AF0919C0A30812091A80A20952323FF
:1036F0002083E0919B0AF0919C0A30812091A80AD6
:10370000232B2083E0919B0AF0919C0A3081209129
:10371000A80A209523232083E0919B0AF0919C0A1C
:1037200030812091A80A232B2083E0919B0AF091FD
:103730009C0A30812091A80A209523232083E091C0
:103740009B0AF0919C0A30812091A80A232B2083A8
:10375000E0919B0AF0919C0A30812091A80A209563
:1037600023232083E0919B0AF0919C0A20813091D1
:10377000A80A322B3083E0919B0AF0919C0A408189
:103780003091A80A309534233083E0919B0AF09160
:103790009C0A20813091A80A322B30830196A11D0A
:1037A000B11DC6CED701C6018F709927AA27BB27A6
:1037B000892B8A2B8B2B09F096C1E0919D0AF09101
:1037C0009E0A90818091A90A892B808381E0809351
:1037D000660A1092620A1092630A1092640A1092AA
:1037E000650A8EED90E0A0E0B0E08093750A9093BA
:1037F000760AA093770AB093780A86E69FE0A0E065
:10380000B0E08093790A90937A0AA0937B0AB093F0
:103810007C0A8DE09FE0A0E0B0E080937D0A909369
:103820007E0AA0937F0AB093800A85E591E0A0E02C
:10383000B0E08093810A9093820AA093830AB093A8
:10384000840A8FEE90E0A0E0B0E08093690A909344
:103850006A0AA0936B0AB0936C0A8FE391E0A0E030
:10386000B0E080936D0A90936E0AA0936F0AB093B4
:10387000700A8AE08093670A80915D0A282F30E001
:10388000F901ED5CF14FE491F0E0EE0FFF1FE15024
:10389000F24F4591549150934F0A40934E0AF901CB
:1038A000E758F14FE491E093580A20915E0A30E026
:1038B000F901ED5CF14FE491F0E0EE0FFF1FE150F4
:1038C000F24F459154915093510A4093500AF90197
:1038D000E758F14FE491E093590A20915F0A30E0F4
:1038E000F901ED5CF14FE491F0E0EE0FFF1FE150C4
:1038F000F24F459154915093530A4093520AF90163
:10390000E758F14FE491E0935A0A2091600A30E0C1
:10391000F901ED5CF14FE491F0E0EE0FFF1FE75E7F
:10392000F14F459154915093550A4093540AF9012F
:10393000E758F14FE491E0935B0A2091610A30E08F
:10394000F901ED5CF14FE491F0E0EE0FFF1FE75E4F
:10395000F14F459154915093570A4093560AF901FB
:10396000E758F14FE491E0935C0A61E00E9405267C
:1039700061E080915E0A0E94052661E080915F0A05
:103980000E94052660E08091600A0E94052661E0A1
:103990008091610A0E940526E091500AF091510A37
:1039A00090818091590A892B8083E0914E0AF09191
:1039B0004F0A90818091580A892B8083E091520AA6
:1039C000F091530A908180915A0A892B8083E0916B
:1039D000560AF091570A908180915C0A892B808366
:1039E0000E9479268B01E8E6FEE0E491F0E0EE0F1C
:1039F000FF1FE150F24F859194919093D7028093ED
:103A0000D602EEEAFEE034913093D502E5E6FEE020
:103A1000E491F0E0EE0FFF1FE150F24FA591B49159
:103A2000B093D402A093D302EBEAFEE0249120935A
:103A3000D202E6E6FEE0E491F0E0EE0FFF1FE15077
:103A4000F24F459154915093D1024093D002ECEA49
:103A5000FEE0E491E093CF02E7E6FEE0E491F0E0DF
:103A6000EE0FFF1FE150F24F659174917093CE02FB
:103A70006093CD02EDEAFEE044914093CC02FC015C
:103A80005081352B3083FB018081842B8083EC9126
:103A90002E2B2C9361E085E30E94052661E083E3F1
:103AA0000E94052661E084E30E94052660E082E32F
:103AB0000E94052661E085E30E94052661E085E31A
:103AC0000E94D625E091D602F091D7029081809194
:103AD000D502892B808383E58CBD8DB58E7F8DBD0E
:103AE0006AE0F62E39C3C701B60120E130E040E0BC
:103AF00050E00E94E63BC12CD12C76016C157D056F
:103B00008E059F050CF459CEE0919B0AF0919C0A1A
:103B100030812091A80A209523232083E0919B0ADD
:103B2000F0919C0A30812091A80A232B2083FFEF7B
:103B3000CF1ADF0AEF0AFF0AE1CFE83009F0CEC260
:103B40009A01AB012F5F3F4F4F4F5F4FBC01CD013B
:103B50006F5F7F4F8F4F9F4F0E947D3B6B017C01BA
:103B600012B820E130E040E050E00E94E63B49011D
:103B70005A0180E090E0DC0188159905AA05BB0593
:103B80000CF064C2E0919B0AF0919C0A3081209174
:103B9000A80A209523232083E0919B0AF0919C0A98
:103BA00030812091A80A232B2083E0919B0AF09179
:103BB0009C0A30812091A80A209523232083E0913C
:103BC0009B0AF0919C0A30812091A80A232B208324
:103BD000E0919B0AF0919C0A30812091A80A2095DF
:103BE00023232083E0919B0AF0919C0A308120914D
:103BF000A80A232B2083E0919B0AF0919C0A308134
:103C00002091A80A209523232083E0919B0AF0911C
:103C10009C0A30812091A80A232B2083E0919B0AE3
:103C2000F0919C0A30812091A80A209523232083BB
:103C3000E0919B0AF0919C0A30812091A80A232BE5
:103C40002083E0919B0AF0919C0A30812091A80A80
:103C5000209523232083E0919B0AF0919C0A3081D8
:103C60002091A80A232B2083E0919B0AF0919C0AC3
:103C700030812091A80A209523232083E0919B0A7C
:103C8000F0919C0A30812091A80A232B2083E09197
:103C90009B0AF0919C0A30812091A80A2095232349
:103CA0002083E0919B0AF0919C0A30812091A80A20
:103CB000232B2083E0919B0AF0919C0A3081209174
:103CC000A80A209523232083E0919B0AF0919C0A67
:103CD00030812091A80A232B2083E0919B0AF09148
:103CE0009C0A30812091A80A209523232083E0910B
:103CF0009B0AF0919C0A30812091A80A232B2083F3
:103D0000E0919B0AF0919C0A30812091A80A2095AD
:103D100023232083E0919B0AF0919C0A308120911B
:103D2000A80A232B2083E0919B0AF0919C0A308102
:103D30002091A80A209523232083E0919B0AF091EB
:103D40009C0A30812091A80A232B2083E0919B0AB2
:103D5000F0919C0A30812091A80A2095232320838A
:103D6000E0919B0AF0919C0A30812091A80A232BB4
:103D70002083E0919B0AF0919C0A30812091A80A4F
:103D8000209523232083E0919B0AF0919C0A3081A7
:103D90002091A80A232B2083E0919B0AF0919C0A92
:103DA00030812091A80A209523232083E0919B0A4B
:103DB000F0919C0A30812091A80A232B2083E09166
:103DC0009B0AF0919C0A30812091A80A2095232318
:103DD0002083E0919B0AF0919C0A30812091A80AEF
:103DE000232B2083E0919B0AF0919C0A3081209143
:103DF000A80A209523232083E0919B0AF0919C0A36
:103E000030812091A80A232B2083E0919B0AF09116
:103E10009C0A30812091A80A209523232083E091D9
:103E20009B0AF0919C0A30812091A80A232B2083C1
:103E3000E0919B0AF0919C0A30812091A80A20957C
:103E400023232083E0919B0AF0919C0A30812091EA
:103E5000A80A232B2083E0919B0AF0919C0A3081D1
:103E60002091A80A209523232083E0919B0AF091BA
:103E70009C0A30812091A80A232B2083E0919B0A81
:103E8000F0919C0A30812091A80A20952323208359
:103E9000E0919B0AF0919C0A30812091A80A232B83
:103EA0002083E0919B0AF0919C0A30812091A80A1E
:103EB000209523232083E0919B0AF0919C0A308176
:103EC0002091A80A232B2083E0919B0AF0919C0A61
:103ED00030812091A80A209523232083E0919B0A1A
:103EE000F0919C0A30812091A80A232B2083E09135
:103EF0009B0AF0919C0A30812091A80A20952323E7
:103F00002083E0919B0AF0919C0A30812091A80ABD
:103F1000232B2083E0919B0AF0919C0A3081209111
:103F2000A80A209523232083E0919B0AF0919C0A04
:103F300030812091A80A232B2083E0919B0AF091E5
:103F40009C0A30812091A80A209523232083E091A8
:103F50009B0AF0919C0A30812091A80A232B208390
:103F6000E0919B0AF0919C0A30812091A80A20954B
:103F700023232083E0919B0AF0919C0A30812091B9
:103F8000A80A232B2083E0919B0AF0919C0A3081A0
:103F90002091A80A209523232083E0919B0AF09189
:103FA0009C0A30812091A80A232B2083E0919B0A50
:103FB000F0919C0A30812091A80A20952323208328
:103FC000E0919B0AF0919C0A30812091A80A232B52
:103FD0002083E0919B0AF0919C0A30812091A80AED
:103FE000209523232083E0919B0AF0919C0A308145
:103FF0002091A80A232B2083E0919B0AF0919C0A30
:1040000030812091A80A209523232083E0919B0AE8
:10401000F0919C0A20813091A80A322B3083E091E4
:104020009B0AF0919C0A40813091A80A3095342374
:104030003083E0919B0AF0919C0A20813091A80A7C
:10404000322B30830196A11DB11D96CDD701C6013B
:104050008F709927AA27BB27892B8A2B8B2B09F4D2
:10406000ACCBC701B60120E130E040E050E00E9457
:10407000E63BC12CD12C76016C157D058E059F0584
:104080000CF49BCBE0919B0AF0919C0A308120912B
:10409000A80A209523232083E0919B0AF0919C0A93
:1040A00030812091A80A232B2083E0919B0AF09174
:1040B0009C0A30812091A80A209523232083E09137
:1040C0009B0AF0919C0A30812091A80A232B20831F
:1040D0002FEFC21AD20AE20AF20ACECFC12CD12C9B
:1040E000760180918E0A90918F0AA091900AB091EA
:1040F000910A9C01AD012F5F3F4F4F4F5F4F809161
:10410000920A9091930AA091940AB091950ABC01E9
:10411000CD016F5F7F4F8F4F9F4F0E947D3BC61633
:10412000D706E806F9060CF048CB4091970A4130D3
:1041300019F060E080E009C041E060E081E00E94A9
:10414000A3284091970A60E081E0FDD78FEFC81A5D
:10415000D80AE80AF80AC5CF8FEF21D6FA94F110F1
:10416000FBCFE091D602F091D70290818091D502E9
:1041700080958923808340E050E0BA0180E018D622
:10418000F82EF1E08F1741F0B4D5601B710B613D43
:10419000774088F381E036C04AEA51E060E070E0A1
:1041A00088E006D682FF03C0F092D9020BC0FCD58E
:1041B000FBD5FAD5F9D58A3A11F082E023C082E026
:1041C0008093D90240E050E0BA0187E3F1D540E0A6
:1041D00050E0BA0189E2ECD5882341F08AD5601B12
:1041E000710B613D774070F388E00CC08091D9027B
:1041F0008230F1F440E050E0BA018AE3D9D5882357
:1042000069F086E08093D802E091D602F091D7025F
:1042100090818091D502892B808315C0C5D5807C83
:10422000803C19F483E08093D902BED5BDD5BCD5BE
:10423000E091D602F091D70290818091D502892B2E
:10424000808381E58CBD40E050E0BA0189E094E0D4
:10425000F7D581118EC180910706853509F089C196
:10426000809108068A3A09F084C1E091CB05E09379
:10427000C8034091D20550E060E070E0742F6627DB
:10428000552744278091D10590E0A0E0B0E0DC0103
:1042900099278827480F591F6A1F7B1F8091D005D7
:1042A00090E0982F88272091CF05820F911D480F0D
:1042B000591F611D711D4093C9035093CA03609338
:1042C000CB037093CC038091D60590E0A0E0B0E0E2
:1042D000382F2227112700279091D505892F90E0AC
:1042E000A0E0B0E0DC0199278827800F911FA21F72
:1042F000B31F2091D40530E0322F2227F091D3054F
:104300002F0F311D820F931FA11DB11D8093CD036F
:104310009093CE03A093CF03B093D0038E2F8D7FC5
:10432000843019F0E63809F024C189E094E088D59A
:1043300081111FC180910706853509F01AC180914E
:1043400008068A3A09F015C1809116048093D103BA
:104350002091180430E0322F222780911704280F73
:10436000311D3093D3032093D203E0911904E093DD
:10437000D40380911B0490E0982F882740911A0461
:10438000840F911D9093D6038093D50380911D04D3
:1043900090E0982F882740911C04840F911DAC0158
:1043A00060E070E04093D7035093D8036093D90343
:1043B0007093DA03892B59F580912C0490E0A0E0EA
:1043C000B0E0782F66275527442790912B04892F3A
:1043D00090E0A0E0B0E0DC0199278827840F951FCA
:1043E000A61FB71F40912A0450E0542F4427609124
:1043F0002904460F511D840F951FA11DB11D8093E7
:10440000D7039093D803A093D903B093DA03809194
:10441000200490E0982F882740911F04840F911D5D
:104420009093DC038093DB034091280450E060E02C
:1044300070E0F42EEE24DD24CC2450912704452F87
:1044400050E060E070E0BA01552744274C0D5D1D37
:104450006E1D7F1DA0912604B0E0BA2FAA27F0910F
:104460002504AF0FB11D4A0F5B1F611D711D4093E5
:10447000DD035093DE036093DF037093E00340910C
:10448000330450E060E070E0F42EEE24DD24CC2410
:1044900050913204452F50E060E070E0BA0155279A
:1044A00044274C0D5D1D6E1D7F1DA0913104B0E0B1
:1044B000BA2FAA27F0913004AF0FB11D4A0F5B1F2E
:1044C000611D711D4093E1035093E2036093E30388
:1044D0007093E4034091C9035091CA036091CB03E8
:1044E0007091CC036A017B01C20ED31EE11CF11C4A
:1044F000E89FD001E99FB00D1124CA0EDB1EE11C1C
:10450000F11CC0920504D0920604E0920704F092D8
:104510000804420F531F5093E6034093E503840FB2
:10452000951F9093E8038093E7038091CD039091CA
:10453000CE03A091CF03B091D003BC01CD0109E01F
:10454000660F771F881F991F0A95D1F70E948C3A32
:1045500020E030E040E855E30E94C93A6093E90367
:104560007093EA038093EB039093EC0381E08093D4
:1045700023068CE08093670AE6EAF1E0F093B40A40
:10458000E093B30AE491E093B50AE7EAF1E0E4913D
:10459000E093B60AE8EAF1E0E491E093B70AE9EAC9
:1045A000F1E0E491E093B80A2B960FB6F894DEBFE1
:1045B0000FBECDBFDF91CF911F910F91FF90EF9074
:1045C000DF90CF90BF90AF909F908F900895A8E616
:1045D000B0E0283010F40C946A09E0E0F0E00C94AC
:1045E0006C09CF92DF92EF92FF920F931F93CF93BC
:1045F000DF936C017A018B01C0E0D0E0CE15DF05BE
:1046000089F0D8016D918D01D601ED91FC91019059
:10461000F081E02DC6011995892B11F47E0102C0AD
:104620002196ECCFC701DF91CF911F910F91FF90A1
:10463000EF90DF90CF900895FC01A089B1898C9113
:10464000A689B78982FD0FC09C91818D8F5F8F7382
:10465000228D821749F0218DDF01A20FB11D5D96D9
:104660009C93818F08958C910895FC01538D448D06
:10467000252F30E0842F90E0821B930B541710F00D
:10468000CF96089501970895FC01918D828D98171A
:1046900061F0828DDF01A80FB11D5D968C91928D26
:1046A0009F5F9F73928F90E008958FEF9FEF089523
:1046B000FC01918D828D981731F0828DE80FF11DEC
:1046C000858D90E008958FEF9FEF0895FC01918D07
:1046D000228D892F90E0805C9F4F821B91098F7300
:1046E0009927089583EE92E0F1DF21E0892B09F408
:1046F00020E0822F089582E597E0E8DF21E0892B12
:1047000009F420E0822F0895FC01848DDF01A80FB9
:10471000B11DA35ABF4F2C91848D90E001968F73E9
:104720009927848FA689B7892C93A089B1898C9108
:1047300080648C93938D848D981306C00288F389CE
:10474000E02D80818F7D80830895EF92FF920F93FB
:104750001F93CF93DF93EC0181E0888F9B8D8C8D2D
:10476000981305C0E889F989808185FD23C0F62E5C
:104770000B8D10E00F5F1F4F0F731127E02E8C8DF4
:10478000E8120BC00FB607FCFACFE889F9898081DF
:1047900085FFF5CFCE01B8DFF2CF8B8DFE01E80F9C
:1047A000F11DE35AFF4FF0820B8FEA89FB8980816C
:1047B000806207C0EE89FF896083E889F98980817A
:1047C0008064808381E090E0DF91CF911F910F9111
:1047D000FF90EF900895CF93DF93EC01888D8823AD
:1047E000C1F0EA89FB89808185FD05C0A889B98966
:1047F0008C9186FD0EC00FB607FCF5CF808185FF3A
:10480000F2CFA889B9898C9185FFEDCFCE017CDFED
:10481000E8CFDF91CF91089580E090E0892B19F0E7
:104820006ADF811120C080E090E0892B19F05ADF07
:1048300081111CC080E090E0892B41F080E090E085
:10484000892B21F00E940000811113C080E090E0CC
:10485000892BA1F080E090E0892B81F00E9400007C
:1048600081110AC008950E940000DDCF0E9400005F
:10487000E1CF0E940000EACF0C940000089590E080
:10488000FC013197E231F10508F04EC08827ED5563
:10489000FF4F8F4F0C94023C809180008F7703C0B4
:1048A000809180008F7D80938000089580918000AA
:1048B000877FF9CF84B58F7702C084B58F7D84BDA3
:1048C00008958091B0008F7703C08091B0008F7DF4
:1048D0008093B0000895809190008F7707C08091F9
:1048E00090008F7D03C080919000877F809390001F
:1048F00008958091A0008F7707C08091A0008F7DE0
:1049000003C08091A000877F8093A00008958091CC
:1049100020018F7707C0809120018F7D03C0809197
:104920002001877F8093200108953FB7F8948091FC
:10493000DF029091E002A091E102B091E20226B57F
:10494000A89B05C02F3F19F00196A11DB11D3FBFC7
:10495000BA2FA92F982F8827820F911DA11DB11D55
:10496000BC01CD0142E0660F771F881F991F4A9551
:10497000D1F708950C94B33C0E942F3EEF92FF9222
:104980000F931F93CF93DF93EC01198218821B8240
:104990001A821D821C8261157105A9F17B01FB0140
:1049A00001900020E9F731978F01061B170BB80122
:1049B0006F5F7F4F80E090E00E944B3D009759F081
:1049C000998388831B830A832C813D81232B81F467
:1049D000FC0110820DC088819981009711F00E941E
:1049E000B33C198218821D821C821B821A820BC062
:1049F0001D830C83B701DF91CF911F910F91FF9021
:104A0000EF900C943C3EDF91CF911F910F91FF905E
:104A1000EF9008951F920F920FB60F9211240BB6CC
:104A20000F922F933F934F935F936F937F938F9347
:104A30009F93AF93BF93EF93FF9383EE92E064DE77
:104A4000FF91EF91BF91AF919F918F917F916F9166
:104A50005F914F913F912F910F900BBE0F900FBE22
:104A60000F901F9018951F920F920FB60F9211245E
:104A70000BB60F922F933F934F935F936F937F9358
:104A80008F939F93AF93BF93EF93FF9383EE92E047
:104A9000D3DDFF91EF91BF91AF919F918F917F9166
:104AA0006F915F914F913F912F910F900BBE0F909F
:104AB0000FBE0F901F9018951F920F920FB60F9276
:104AC00011240BB60F922F933F934F935F936F93E5
:104AD0007F938F939F93AF93BF93EF93FF9382E561
:104AE00097E012DEFF91EF91BF91AF919F918F916F
:104AF0007F916F915F914F913F912F910F900BBEDE
:104B00000F900FBE0F901F9018951F920F920FB627
:104B10000F9211240BB60F922F933F934F935F93F5
:104B20006F937F938F939F93AF93BF93EF93FF9375
:104B300082E597E081DDFF91EF91BF91AF919F9169
:104B40008F917F916F915F914F913F912F910F9036
:104B50000BBE0F900FBE0F901F901895CF93DF9351
:104B6000282F30E0F901E754F24F8491F901E7581A
:104B7000F14FD491F901ED5CF14FC491CC2389F050
:104B800081117DDEEC2FF0E0EE0FFF1FE75EF14FAD
:104B9000A591B491EC91ED2381E090E021F480E0C7
:104BA00002C080E090E0DF91CF9108951F93CF93F2
:104BB000DF93282F30E0F901E754F24F8491F90197
:104BC000E758F14FD491F901ED5CF14FC491CC233A
:104BD000C1F0162F811153DEEC2FF0E0EE0FFF1F16
:104BE000E150F24FA591B4918FB7F894111105C01F
:104BF0009C91ED2FE095E92302C0EC91ED2BEC9315
:104C00008FBFDF91CF911F910895CF93DF9390E0F5
:104C1000FC01E758F14F2491FC01ED5CF14F8491C8
:104C2000882361F190E0880F991FFC01E156F24F53
:104C3000C591D491FC01E150F24FA591B49161115D
:104C400009C09FB7F8948881209582238883EC91CE
:104C50002E230BC0623061F49FB7F8943881822F05
:104C6000809583238883EC912E2B2C939FBF06C0C5
:104C70008FB7F894E8812E2B28838FBFDF91CF91D7
:104C800008958F929F92AF92BF92CF92DF92EF9250
:104C9000FF926B017C0149DE4B015C01C114D10420
:104CA000E104F104E9F041DEDC01CB018819990946
:104CB000AA09BB09883E9340A105B10578F321E01C
:104CC000C21AD108E108F10888EE880E83E0981E28
:104CD000A11CB11CC114D104E104F10421F7DECF01
:104CE000FF90EF90DF90CF90BF90AF909F908F900C
:104CF00008952FB7F8946091DB027091DC028091E7
:104D0000DD029091DE022FBF08951F920F920FB621
:104D10000F9211242F933F938F939F93AF93BF9341
:104D20008091DB029091DC02A091DD02B091DE0265
:104D30003091DA0223E0230F2D3720F40196A11DD4
:104D4000B11D05C026E8230F0296A11DB11D2093B9
:104D5000DA028093DB029093DC02A093DD02B09331
:104D6000DE028091DF029091E002A091E102B09119
:104D7000E2020196A11DB11D8093DF029093E00233
:104D8000A093E102B093E202BF91AF919F918F9106
:104D90003F912F910F900FBE0F901F9018958EBDD1
:104DA0000DB407FEFDCF08958FEFF9DF8EB508959E
:104DB000DF92EF92FF920F931F93CF93DF93C82F51
:104DC000D42FF52EE62ED72EE091D602F091D70201
:104DD00020819091D5029095922390838ADF8B0158
:104DE000E3DF8F3F71F48C2F8064D9DF8D2DD7DF07
:104DF0008E2DD5DF8F2DD3DF8D2FD1DFCC2361F02A
:104E000007C077DF601B710B6C32714048F3EBCF4A
:104E1000C83021F487E803C085E901C08FEFBFDF08
:104E2000C0E0C2DF87FF04C0CF3F11F0CF5FF9CFF2
:104E3000DF91CF911F910F91FF90EF90DF90089538
:104E4000CF92DF92EF92FF92CF93DF93D82FC92FAB
:104E50006A017B018091D902833039F089E0CC0C62
:104E6000DD1CEE1CFF1C8A95D1F7B701A60181E17C
:104E70009FDF8111FACF3DDF7B0196DF8F3F41F449
:104E800038DF6E197F0969357240B8F38FE003C0CF
:104E90008E3FD1F08DE08093D802E091D602F09160
:104EA000D70290818091D502892B80831092D802FD
:104EB000E091D602F091D70290818091D502892BA2
:104EC00080838091D8021FC08FEF8EBDED2FFC2F05
:104ED000DF01A150BE4F0DB407FEFDCF9EB59193EB
:104EE0008EBDEA17FB07B9F70DB407FEFDCF8EB5EF
:104EF0008C93E091D602F091D70290818091D502F7
:104F0000892B808380E0DF91CF91FF90EF90DF903D
:104F1000CF900895FC01908190539A3008F090E072
:104F2000818180532AE0929F800D11240895089575
:104F30008EBD0DB407FEFDCF08958FEF8EBD0DB46D
:104F400007FEFDCF8EB50895CF93DF93FC0123813B
:104F5000222351F0EC010180F281E02D61E0828199
:104F600025DE8FEFE5DF1B82DF91CF9108950F9350
:104F70001F93CF93DF938C01862FEA01D9DF8881BD
:104F80008EBD8981FE013296DE5F0DB407FEFDCF36
:104F90008EBDEC17FD0711F08191F7CF0DB407FE20
:104FA000FDCF8FEFC5DF8FEFC3DFC7DFF80184834D
:104FB000982F9F71953031F087E58083C801C4DF59
:104FC00080E001C081E0DF91CF911F910F910895A2
:104FD000FF920F931F93CF93DF9300D01F92CDB713
:104FE000DEB78C01F62E29833A834B835C83DC0188
:104FF00013968C911397811112C01196ED91FC912B
:105000001297908181819CBD8DBD1196ED91FC918F
:10501000129760E08281CADD81E0F801838380D04D
:105020008F2D806485DF8C8183DF8B8181DF8A8196
:105030007FDF89817DDFFF2011F087E801C085E9EE
:1050400077DFFCE0FF1201C078DFF12C76DFD801BA
:1050500014968C9387FF05C0BFEFFB1611F0F394F5
:10506000F5CF0F900F900F900F90DF91CF911F9180
:105070000F91FF9008950F931F93CF93DF93EC014F
:1050800089018D81833039F089E0440F551F661FF7
:10509000771F8A95D1F79A01AB0168E1CE0198DFBD
:1050A000882319F082E388830AC0A8016EEFCE013D
:1050B0005EDF182F882319F0CE0146DF03C0CE0132
:1050C00043DF10E0812FDF91CF911F910F91089561
:1050D000E2E5F7E0A089B18982E08C93A485B585EB
:1050E0001C92A685B78580E18C93108EA489B58922
:1050F00086E08C93A289B3898C9180618C93A2897C
:10510000B3898C9188608C93A289B3898C918068D3
:105110008C930288F389E02D80818F7D80830895B0
:10512000CF93DF93E6DDEB0108DF8F3F41F0E1DD58
:105130006C1B7D0B69357240B8F380E001C081E0E3
:10514000DF91CF910895483009F448C118F44130F7
:1051500041F00895403109F457C1413109F468C163
:1051600008959091980A943019F5E091A10AF09170
:10517000A20A9091AB0A813019F48081982B03C068
:105180008081909598239083E091A30AF091A40ADE
:1051900090818091AC0A809589238083E091A30A55
:1051A000F091A40A90818091AC0A892B80830FC072
:1051B000E091990AF0919A0A9091A70A813019F426
:1051C0008081982B03C08081909598239083E091F3
:1051D000A10AF091A20A8091AB0A908167FF02C0F8
:1051E000892B02C0809589238083E091A30AF091E6
:1051F000A40A90818091AC0A809589238083E091F4
:10520000A30AF091A40A90818091AC0A892B808333
:10521000E091A10AF091A20A8091AB0A908166FF09
:1052200002C0892B02C0809589238083E091A30A64
:10523000F091A40A90818091AC0A809589238083A3
:10524000E091A30AF091A40A90818091AC0A892B85
:105250008083E091A10AF091A20A8091AB0A90812B
:1052600065FF02C0892B02C0809589238083E0916D
:10527000A30AF091A40A90818091AC0A80958923B9
:105280008083E091A30AF091A40A90818091AC0AF6
:10529000892B8083E091A10AF091A20A8091AB0A48
:1052A000908164FF02C0892B02C08095892380838E
:1052B000E091A30AF091A40A90818091AC0A8095B4
:1052C00089238083E091A30AF091A40A90818091C0
:1052D000AC0A892B8083E091A10AF091A20A809107
:1052E000AB0A908163FF02C0892B02C0809589239D
:1052F0008083E091A30AF091A40A90818091AC0A86
:10530000809589238083E091A30AF091A40A90817B
:105310008091AC0A892B8083E091A10AF091A20AC6
:105320008091AB0A908162FF02C0892B02C08095F8
:1053300089238083E091A30AF091A40A908180914F
:10534000AC0A809589238083E091A30AF091A40A96
:1053500090818091AC0A892B8083E091A10AF09121
:10536000A20A8091AB0A908161FF02C0892B02C022
:10537000809589238083E091A30AF091A40A90810B
:105380008091AC0A809589238083E091A30AF091F3
:10539000A40A90818091AC0A892B8083E091A10AB4
:1053A000F091A20A8091AB0A908160FF02C0892B24
:1053B00002C0809589238083E091A30AF091A40A1A
:1053C00090818091AC0A809589238083E091A30A23
:1053D000F091A40A90818091AC0ACFC082B9E0918B
:1053E0009B0AF0919C0A90818091A80A809589235C
:1053F0008083E0919B0AF0919C0A90818091A80A99
:10540000892B808362B902C082B968B9E0919B0A96
:10541000F0919C0A90818091A80A809589238083CD
:10542000E0919B0AF0919C0A90818091A80AA5C006
:10543000A59824B3982F9071990F922B94BB9091BB
:105440000201977E9093020190910201282F082E6D
:10545000000C330B207C332743E0359527954A9584
:10546000E1F7292B209302019EB1947C9EB92EB1C5
:10547000382F3C70330F330F982F9370390F807291
:10548000082E000C990B9595879595958795830F18
:10549000822B8EB9E091A50AF091A60A90818091A5
:1054A000AD0A809589238083E091A50AF091A60A30
:1054B00090818091AD0A892B8083E091A50AF091BB
:1054C000A60A90818091AD0A809589238083E0911E
:1054D0009D0AF0919E0A90818091A90A8095892366
:1054E0008083A59894B3862F8071880F892B84BB05
:1054F00080910201877E8093020120910201862F14
:10550000062E000C990B807C992773E09595879562
:105510007A95E1F7822B809302018EB1847C8EB95B
:105520008EB1962F9C70990F990F262F2370920F92
:105530006072062E000C770B7595679575956795CB
:10554000690F682B6EB9E0919B0AF0919C0A9081DB
:105550008091A80A809589238083E0919B0AF0912D
:105560009C0A90818091A80A892B8083E0919D0AF2
:10557000F0919E0A90818091A90A892B80830895D9
:10558000682F8091970A813069F0E091990AF09133
:105590009A0A20819091A70A909592239083409136
:1055A000970A01C041E080E0CECD682F8091970A34
:1055B000813069F0E091990AF0919A0A8081909186
:1055C000A70A982B90834091970A80E002C041E09F
:1055D00081E0B9CD1F93CF93DF931F92CDB7DEB794
:1055E000162F7983CDDF8091970A7981813071F010
:1055F000E091990AF0919A0A80819091A70A982BDC
:1056000090834091970A612F872F08C041E0672F50
:1056100081E099DD4091970A612F81E00F90DF9141
:10562000CF911F9190CDEF92FF920F931F93CF9345
:10563000DF938C01F62EE72E80918D0A813061F484
:105640008091920A9091930AEC01C01BD10B062F16
:10565000172FF82EE92E02C0C0E0D0E0E091960AA4
:105660008E2F90E0FC013297EE31F10508F0D0C0AA
:105670008827EB54FF4F8F4F0C94023C60E070E0A2
:1056800082E0A8DF60E070E083E0A4DF612F70E0DB
:1056900084E0A0DFB80185E09DDF6D2F70E086E03B
:1056A00099DFBE0187E096DF6E2D70E041C060E0BB
:1056B000702F84E48FDFBE0185E48CDF6F2D7E2D9B
:1056C00086E488DF60E070E08EE484DFBE018FE472
:1056D00081DF82E296C060E070E080E27BDFBE01A5
:1056E00081E278DF60E070E080E574DFBE0182E592
:1056F00071DFB80181E56EDF6F2D7E2D83E5E8CF88
:1057000060E070E082E066DF60E070E083E062DF2E
:1057100060E070E084E05EDFB80185E05BDF60E0C0
:1057200070E086E057DFBE0187E054DF60E070E0A4
:1057300088E050DF6F2D7E2D89E0CACF8AE220DF1E
:1057400080E033DF802F31DF8BE21ADF8C2F55C0F2
:105750008AE216DF8D2F29DF8C2F27DF8E2D25DFA4
:105760008F2D23DF8BE20CDF80E01FDF80E01DDF69
:10577000812F1BDF802F43C060E0702F86E42ADF7B
:105780006F2D7E2D87E426DFBE0188E40DC0B801B1
:1057900086E320DF60E070E087E31CDF6F2D7E2D65
:1057A00088E318DFBE0189E315DF60E070E080E286
:1057B00011DFBE0181E28CCFBE0182E00BDF60E031
:1057C00070E083E007DF6F2D7E2D86E003DFB801F8
:1057D00087E000DF8FE015C08AE2D2DE80E0E5DE00
:1057E00080E0E3DE812FE1DE802FDFDE8BE2C8DEAA
:1057F0008D2FDBDE8C2FD9DE8E2DD7DE8F2DD5DEE3
:105800008CE2DF91CF911F910F91FF90EF90B8CE76
:10581000DF91CF911F910F91FF90EF900895382F56
:105820002091C0069091BF06213208F049C08091B6
:105830009C068111FCCF42E040939C0630939B066E
:105840003FEF30939A061092990620939806AFE99D
:10585000B6E048E756E0FA013E2F341B321718F441
:105860003D913193F9CF1092770620917706990FE9
:10587000922B9093770690917606913061F4109276
:105880007606909177069093BB009091BC0093FDB3
:10589000F8CF95EC01C095EE9093BC0090919C06DA
:1058A0009230E1F390919A069F3F79F080919A06A9
:1058B000803241F080919A06803331F084E005C057
:1058C00081E003C082E001C083E010929E06109246
:1058D000C00610929D06089581E080939D0688E69B
:1058E0008093BF0610929E061092C0066FE084E27D
:1058F00096E007D281E093DF80919C068111FCCF76
:1059000081E080939C0680939B069FEF90939A067C
:1059100010929906109298068093770680917706E8
:10592000806D8093770680917606813061F41092C5
:105930007606809177068093BB008091BC0083FD42
:10594000F8CF85EC01C085EE8093BC0080919C0669
:105950008130E1F380919906811103C0809199060D
:1059600001C081E0A8E7B6E026E536E0F9019E2F08
:10597000921B981718F49D919193F9CF10925506A8
:105980008093540684E296E071C10895CF93DF932B
:10599000BC0182E597E00E940636EC0161E772E007
:1059A00082E597E00E9406368C0F9D1FDF91CF9114
:1059B00008952CE080E090E0880F991FE0914E0A56
:1059C000F0914F0A40813091580A342B3083E09196
:1059D0004E0AF0914F0A40813091580A3095342395
:1059E0003083E091540AF091550A408130915B0A6E
:1059F000342309F001962150F9F60895E0914E0AFA
:105A0000F0914F0A20819091580A909592239083AB
:105A100028E0E091520AF091530A90915A0A30819D
:105A200087FF02C0932B02C0909593239083880F29
:105A3000E0914E0AF0914F0A30819091580A90956A
:105A400093239083E0914E0AF0914F0A3081909118
:105A5000580A932B90832150E1F60895FF920F93FB
:105A60001F93CF93DF93F82E062FC7E0D0E010E00E
:105A700061E0802F9BD88F2D71D80C2E01C0880F2C
:105A80000A94EAF7182B60E0802F90D8219780F7CE
:105A9000812FDF91CF911F910F91FF900895209159
:105AA000C3063091C4062817390771F49091C206D5
:105AB0008091C106981741F0E091C206F0E0E45FE2
:105AC000F84F808190E008958FEF9FEF089508953B
:105AD0001F93CF93DF93DC015C962D913C915D97F2
