:100000000C9429590C945A590C945A590C945A59D5
:100010000C945A590C945A590C945A590C945A5994
:100020000C945A590C945A590C945A590C945A5984
:100030000C945A590C945A590C945A590C945A5974
:100040000C945A590C945A590C945A590C945A5964
:100050000C945A590C945A590C945A590C943FB315
:100060000C945A590C9443B10C941AB10C945A59EB
:100070000C945A590C945A590C945A590C945A5934
:100080000C945A590C945A590C945A590C945A5924
:100090000C94F1B00C94C8B00C945A590C9489CBC0
:1000A0000C945A590C945A590C945A590C945A5904
:1000B0000C945A590C945A590C945A590C945A59F4
:1000C0000C945A590C945A590C945A590C949FB048
:1000D0000C9476B00C945A590C944DB00C9424B0F6
:1000E0000C945A59E359CF71005B005B205DCF71CE
:1000F000AC61BE5E2761CF719363D664E066E06653
:10010000E3596D6CCF71E359D8650A68A85B026941
:10011000EC696D6C626B536DE66E9970B2707A5FCC
:100120007FE895E895E893E895E87DE895E895E817
:1001300095E871E895E895E886E891E88FE895E814
:1001400095E895E88DE859AC5AAD74AC74AC8DACBB
:100150005AAD3AAC24ADB1AC5AADC3ACC3ACE9AC0A
:10016000E9AC59AC24AD5AAD59ACC3AC24AD74ACB8
:10017000F8AC24AD24AD24AD24AD24AD11AD24AD37
:1001800024ADC0AFC3AFB2AFB6AFBCAFFAAFC7AF6D
:10019000CBAFD1AFD5AFD9AFDFAFE3AFE7AFFAAFFA
:1001A000EDAFF1AFF5AF00407A10F35A00A0724EF8
:1001B00018090010A5D4E80000E87648170000E40C
:1001C0000B54020000CA9A3B000000E1F505000054
:1001D00080969800000040420F000000A0860100B9
:1001E0000000102700000000E80300000000640089
:1001F000000000000A0000000000010000000000F4
:100200002C76D888DC674F0823DFC1DFAE59E1B117
:10021000B796E5E3E453C63AE651997696E8E6C226
:100220008426EB898C9B62ED407C6FFCEFBC9C9F2D
:1002300040F2BAA56FA5F490055A2AF75C936B6C4F
:10024000F9676DC11BFCE0E40D47FEF520E6B50043
:10025000D0ED902E0300943577050080841E0800B1
:1002600000204E0A000000C80C333333330F986E61
:1002700012831141EF8D2114893BE65516CFFEE61E
:10028000DB18D1844B381BF77C1D901DA4BBE424E4
:10029000203284725E228100C9F124ECA1E53D2761
:1002A0001F1C1F1E1F1E1F1F1E1F1E1F54696D6552
:1002B0002073657474696E672069732066696E695E
:1002C0007368656400000D0A5B5D7B7D23255E2AF3
:1002D0002B3D0409065F5C7C7E3C3E00000000056F
:1002E00008052E2C3F2127000000000000002100FF
:1002F000240027002A002D003000330001010000F7
:10030000040107010A0131313A31333A3139004AE7
:10031000756C203331203230313700000D0A313214
:100320003334353637383930000D0A2D2F3A3B2813
:1003300029242640220508052E2C3F2127000000F5
:100340000000000D0A51574552545955494F50016C
:100350000C094153444647484A4B4C00020A075A8D
:10036000584356424E4D000000080C205F0000002C
:1003700000000000000000000000002020202020DD
:100380002000200000002850500000000000000065
:100390000000002828FC2850FC5050000000207865
:1003A000A8A0603028A8F02000000048A8B050287D
:1003B0003454480000000020505078A8A8906C00E9
:1003C0000000404080000000000000000000040821
:1003D0001010101010100804000040201010101011
:1003E000101020400000000020A87070A82000001D
:1003F000000000202020F820202000000000000045
:100400000000000000004040800000000000F800F4
:10041000000000000000000000000000000040009C
:1004200000000810101020204040408000000070A4
:10043000888888888888700000000020602020203C
:100440002020700000000070888810204080F80094
:100450000000007088083008088870000000001054
:100460003050509078101800000000F88080F0089C
:1004700008887000000000709080F0888888700004
:10048000000000F8901020202020200000000070C4
:100490008888708888887000000000708888887854
:1004A000084870000000000000200000000020004C
:1004B00000000000000020000000202000000408D0
:1004C00010204020100804000000000000F8000088
:1004D000F800000000004020100804081020400030
:1004E00000000070888810202000200000000070AC
:1004F0008898A8A8B88078000000002020305050CC
:100500007848CC00000000F0484870484848F000A7
:10051000000000788880808080887000000000F0F3
:10052000484848484848F000000000F848507050DB
:100530004048F800000000F8485070504040E0008B
:10054000000000384880809C88483000000000CCC3
:10055000484878484848CC00000000F82020202077
:100560002020F8000000007C10101010101090E007
:10057000000000EC485060505048EC00000000E0E3
:10058000404040404044FC00000000D8D8D8D8A8E3
:10059000A8A8A800000000DC486868585848E8008F
:1005A000000000708888888888887000000000F04B
:1005B000484870404040E00000000070888888880B
:1005C000E8987018000000F0484870504848EC0067
:1005D00000000078888060100888F000000000F8B3
:1005E000A820202020207000000000CC4848484867
:1005F00048483000000000CC4848505030202000CF
:10060000000000A8A8A8705050505000000000D86A
:10061000505020205050D800000000D850502020CA
:1006200020207000000000F8901020204048F800C2
:1006300000003820202020202020203800004040CA
:100640004020201010100800000070101010101032
:10065000101010700000205000000000000000008A
:10066000000000000000000000000000FC0020006E
:100670000000000000000000000000000000304802
:1006800038483C00000000C04040704848487000B6
:10069000000000000000384840403800000000180A
:1006A0000808384848483C00000000000000304876
:1006B000784038000000001C20207820202078009E
:1006C0000000000000003C4830407844380000C082
:1006D000404070484848EC000000002000006020C6
:1006E00020207000000000100000301010101010CA
:1006F000E00000C040405C507048EC00000000E0AA
:10070000202020202020F800000000000000F0A899
:10071000A8A8A800000000000000F0484848EC002D
:100720000000000000003048484830000000000091
:100730000000F04848487040E000000000003848E1
:10074000484838081C0000000000D8604040E00025
:100750000000000000007840300878000000000031
:100760002020702020201800000000000000D84841
:1007700048483C00000000000000EC4850302000D9
:10078000000000000000A8A8705050000000000009
:100790000000D8502050D800000000000000EC48B5
:1007A00050302020C0000000000078102020780089
:1007B0000000181010102010101010180010101049
:1007C00010101010101010101000602020201020A9
:1007D000202020600040A41800000000000000005D
:1007E000001010205F00000000000000000000006A
:1007F00000000000000000000000000000000000F9
:1008000000000000000000000007000F800F800FB4
:10081000800F800F8007000700000000000700071E
:10082000000700000000000E380E380E380E3806A3
:100830003000000000000000000000000000000088
:10084000000000000000000C300C300C307FFE7FF8
:10085000FE0C300C300C300C307FFE7FFE0C300C68
:10086000300C3000000000024002400FF81FF81A60
:10087000401A401FF00FF8025802581FF81FF002EC
:1008800040024000000000000000000E100E300E7C
:100890007000E001C0038007000E700C700870004B
:1008A0000000000000000000000F001980198019EE
:1008B000800F000F080F9819F818F018E019F00FC2
:1008C0009800000000000000000700070007000E6D
:1008D0000000000000000000000000000000000018
:1008E00000000000000000000000F001C0038007CD
:1008F000000E000E000E000E000700038001C00075
:10090000F000000000000000000F00038001C000A4
:10091000E0007000700070007000E001C003800F04
:10092000000000000000000000018011880990070D
:10093000E007E03FFC3FFC07E007E0099011880179
:1009400080000000000000000000000000018001A5
:100950008001800FF00FF001800180018000000015
:100960000000000000000000000000000000000087
:100970000000000000000000000000070007000762
:10098000000E000000000000000000000000000059
:100990000000001FF81FF800000000000000000029
:1009A0000000000000000000000000000000000047
:1009B0000000000000000000000000070007000722
:1009C00000000000000000000000020006000E0011
:1009D0001C0038007000E001C0038007000E001CFE
:1009E0000000000000000000000FF01C381C781C04
:1009F000F81CF81DB81DB81F381F381E381C380FDA
:100A0000F000000000000000000180018003801F52
:100A1000801F800380038003800380038003801F86
:100A2000F000000000000000000FE01C701C380007
:100A300038007000E001C0038007000E381C381F2A
:100A4000F800000000000000000FE01C701C3800DF
:100A500038007003C003C0007000381C381C700FD1
:100A6000E0000000000000000000E001E003E006FC
:100A7000E00CE018E01FF81FF800E000E000E003E1
:100A8000F800000000000000001FF81C001C001C03
:100A9000001C001FE01FF0007800381C381C700F8D
:100AA000E0000000000000000003E007000E001C52
:100AB000001C001FF01FF81C381C381C381C380F95
:100AC000F000000000000000001FFC1C1C1C1C1C8F
:100AD0001C001C0038007000E001C003800380038C
:100AE0008000000000000000000FF01C381C381CC3
:100AF000381F3807E007E01CF81C381C381C380F7A
:100B0000F000000000000000000FF01C381C381C32
:100B1000381C381FF80FF800380038007000E00764
:100B2000C00000000000000000000000000380037F
:100B30008003800000000003800380038000000029
:100B4000000000000000000000000000000380031F
:100B50008003800000000003800380038007000002
:100B600000000000000000007000E001C0038007EA
:100B7000000E001C001C000E000700038001C000D6
:100B8000E000700000000000000000000000003FD6
:100B9000FC3FFC000000003FFC3FFC0000000000A8
:100BA000000000000000001C000E00070003800190
:100BB000C000E00070007000E001C0038007000E7C
:100BC000001C000000000003C00FF01E7818380061
:100BD00038007000E001C001C00000000001C00149
:100BE000C001C0000000000FF81C1C1C1C1C1C1CB9
:100BF0001C1CFC1CFC1CFC1CFC1C001C001C001F06
:100C0000F007F800000000000003C007E00E701CB1
:100C1000381C381C381C381FF81C381C381C381C71
:100C20003800000000000000001FF00E380E380EE3
:100C3000380E380FF00FF00E380E380E380E381F01
:100C4000F0000000000000000007F00E381C381C07
:100C5000001C001C001C001C001C001C380E380767
:100C6000F000000000000000001FE00E700E380EC3
:100C7000380E380E380E380E380E380E380E701FFB
:100C8000E000000000000000001FF80E180E080E23
:100C9000000E300FF00FF00E300E000E080E181F71
:100CA000F800000000000000001FF80E180E080EEB
:100CB000000E300FF00FF00E300E000E000E001F71
:100CC00000000000000000000007F00E381C381C77
:100CD000381C001C001C001CF81C381C380E38077F
:100CE000F800000000000000001C701C701C701C4C
:100CF000701C701FF01FF01C701C701C701C701C8E
:100D00007000000000000000000FE003800380037B
:100D10008003800380038003800380038003800FAF
:100D2000E0000000000000000001FC007000700006
:100D30007000700070007038703870387038700F44
:100D4000E000000000000000001E380E380E700E9B
:100D5000E00FC00F800F800FC00EE00E700E381E27
:100D60003800000000000000001F000E000E000E02
:100D7000000E000E000E000E000E080E180E381F9A
:100D8000F800000000000000001C1C1E3C1F7C1F1F
:100D9000FC1FFC1DDC1C9C1C1C1C1C1C1C1C1C1C8F
:100DA0001C00000000000000001C1C1C1C1E1C1F5E
:100DB0001C1F9C1DDC1CFC1C7C1C3C1C1C1C1C1CCF
:100DC0001C000000000000000003E007F00E381CCB
:100DD0001C1C1C1C1C1C1C1C1C1C1C0E3807F0039F
:100DE000E000000000000000001FF00E380E380E7A
:100DF000380E380FF00FF00E000E000E000E001F20
:100E000000000000000000000003E00F780E381C16
:100E10001C1C1C1C1C1C1C1C7C1CFC0FF80FF80050
:100E20003800FC0000000000001FF00E380E380EE5
:100E3000380E380FF00FF00E700E380E380E381EC8
:100E40003800000000000000000FF01C381C381CA7
:100E5000381C000FE007F000381C381C381C380F15
:100E6000F000000000000000001FFC19CC11C401BC
:100E7000C001C001C001C001C001C001C001C00764
:100E8000F000000000000000001C701C701C701CB2
:100E9000701C701C701C701C701C701C701C700FFF
:100EA000E000000000000000001C701C701C701CA2
:100EB000701C701C701C701C701C700EE007C0034E
:100EC0008000000000000000001C1C1C1C1C1C1CDE
:100ED0001C1C1C1C9C1C9C1C9C0FF80FF80770070A
:100EE0007000000000000000001C701C701C700EE0
:100EF000E007C00380038007C00EE01C701C701C5C
:100F00007000000000000000001C701C701C701CB1
:100F1000701C700EE007C003800380038003800F05
:100F2000E000000000000000001FF81C3818381016
:100F30007000E001C0038007000E081C181C381F59
:100F4000F8000000000000000007F007000700079D
:100F50000007000700070007000700070007000759
:100F6000F00000000000000000100018001C000E3F
:100F7000000700038001C000E000700038001C0082
:100F800007000000000000000007F0007000700083
:100F900070007000700070007000700070007007CA
:100FA000F0000000000000018003C007E00E701C8C
:100FB00038000000000000000000000000000000F9
:100FC0000000000000000000000000000000000021
:100FD0000000000000000000000000000000000011
:100FE000007FFF7FFF000000001C001C00070007BF
:100FF00000000000000000000000000000000000F1
:1010000000000000000000000000000000000000E0
:10101000000FE0007000700FF01C701C701C700F4F
:10102000D800000000000000001E000E000E000EA0
:10103000000FF00E380E380E380E380E380E381BF2
:10104000F0000000000000000000000000000000B0
:10105000000FE01C701C701C001C001C701C700F2A
:10106000E0000000000000000000F80070007000C8
:10107000700FF01C701C701C701C701C701C700FAA
:10108000D800000000000000000000000000000088
:10109000000FE01C701C701FF01C001C701C700FF7
:1010A000E0000000000000000003E0077007700788
:1010B0000007001FE01FE007000700070007001FF0
:1010C000C000000000000000000000000000000060
:1010D000000FD81C701C701C701C700FF007F00003
:1010E000701C700FE0000000001E000E000E000ECD
:1010F000000EF00F380F380E380E380E380E381E2E
:1011000038000000000000000001C001C001C00064
:10111000000FC001C001C001C001C001C001C00F6B
:10112000F800000000000000000070007000700077
:101130000003F00070007000700070007000701C00
:10114000700CF007E0000000001E000E000E000E04
:10115000000E380E700EE00FC00EE00E700E381E3E
:101160003800000000000000000FC001C001C001F5
:10117000C001C001C001C001C001C001C001C00F59
:10118000F800000000000000000000000000000067
:10119000001FF81C9C1C9C1C9C1C9C1C9C1C9C1CCC
:1011A0009C000000000000000000000000000000A3
:1011B000001FE01C701C701C701C701C701C701CCC
:1011C00070000000000000000000000000000000AF
:1011D000000FE01C701C701C701C701C701C700FC9
:1011E000E00000000000000000000000000000001F
:1011F000001BF00E380E380E380E380E380FF00E79
:10120000000E001F000000000000000000000000B1
:10121000001FB038E038E038E038E038E01FE00088
:10122000E000E001F000000000000000000000000D
:10123000001EF00FF80F380E000E000E000E001FFB
:10124000000000000000000000000000000000009E
:10125000000FE01C301C300F8003E0187018700F76
:10126000E000000000000000000000010003000793
:10127000001FF00700070007000700077007700352
:10128000E00000000000000000000000000000007E
:10129000001C701C701C701C701C701C701C700F6B
:1012A000D800000000000000000000000000000066
:1012B000001C701C701C701C701C700EE007C003BA
:1012C000800000000000000000000000000000009E
:1012D000001C1C1C1C1C1C1C9C1C9C0FF807700771
:1012E000700000000000000000000000000000008E
:1012F000001CE01CE00FC0078007800FC01CE01C32
:10130000E0000000000000000000000000000000FD
:10131000000E380E380E380E380E3807F003E00095
:10132000E001C01F8000000000000000000000007D
:10133000001FE018E011C0038007000E201C601F92
:10134000E0000000000000000001F80380038003BB
:101350008007001C001C000700038003800380013D
:10136000F800000000000001C001C001C001C00180
:10137000C001C001C001C001C001C001C001C00165
:10138000C001C00000000000001F8001C001C001BA
:10139000C000E00038003800E001C001C001C01FFB
:1013A0008000000000000000001F1C3B9C39DC385E
:1013B000F800000000000000000000000000000035
:1013C000000000000048004348333736352065727E
:1013D000726F72212020204572726F7220636F64D9
:1013E000653A004800555342204E6F742070726574
:1013F00073656E742E204572726F7220636F646520
:101400003A005553422069732070726573656E749B
:10141000007365745F5553425F4D6F646520636F61
:101420006D6D616E642061636B6E6F776C65646770
:101430006564003E4661696C656420746F20636C6E
:101440006F73652066696C652E204572726F72201D
:10145000636F64653A00636C6F73696E67206669D9
:101460006C6500436C6F73696E672066696C653AE2
:10147000003E436F6E6E656374696F6E20746F20FB
:101480004348333736532077617320737563636540
:10149000737366756C2E004661696C656400446107
:1014A00074612050726F63657373696E672069732E
:1014B00020737461727465642100736176652062C3
:1014C0007574746F6E20746F756368656421006E47
:1014D000657874207061676520627574746F6E2022
:1014E000746F756368656421007072657620706141
:1014F000676520627574746F6E20746F75636865BC
:1015000064210020746F7563686564210054616212
:101510006C6520746F75636865642C20726F77004A
:101520004261636B20627574746F6E2069732074FE
:101530006F756368656400486F6D652062757474CB
:101540006F6E20697320746F7563686564005469F9
:101550006D654F75742077616974696E6720666F79
:101560007220726573706F6E73653A204572726F88
:1015700072207768696C653A2000492063616E27A4
:1015800074206F70656E2066696C652C200046695A
:101590006C65206E616D6520697320006C6F6767F4
:1015A000696E67206469726563746F727920646F15
:1015B0006573206E6F7420657869737473210030D1
:1015C00000300030002F0030002F003000000020DD
:1015D000002300260029002C002F0032000001000B
:1015E0000003010601090101021020200808102053
:1015F000401020408002010201080402010102049F
:10160000081020408080402010080402018004025D
:1016100001804020100804020108040201010204B4
:1016200008102040800102040810204080000022A1
:1016300000250028002B002E00310034000201009C
:1016400000050108010B0105050505070508080847
:1016500008020202020A0A08080404040401010143
:10166000010101010103030303030303030407074B
:10167000070C0C0C0C0C0C0C0C02020202060606E9
:1016800006060606060B0B0B0B0B0B0B0B6E65779A
:101690002070617373776F726420697320006E65C8
:1016A0007720757365726E616D65206973200053D4
:1016B0006176696E67207573657220696E666F006A
:1016C000596F75206861766520746F20696E70753A
:1016D000742075736572206E616D6520636F727220
:1016E0006563746C792E00546F756368656420734C
:1016F000617665207573657220627574746F6E2EE5
:1017000000546F756368656420636F6E6669726DFF
:101710002070617373776F7264206564697400541C
:101720006F7563686564206E657720706173737789
:101730006F7264206564697400546F7563686564D2
:10174000206E657720757365722065646974004248
:1017500061636B20627574746F6E20697320746F9F
:10176000756368656400486F6D6520627574746F99
:101770006E20697320746F756368656400081020BB
:101780005F000000000000000000000000000000FA
:101790000010101010101010101010000010100089
:1017A0000024242424242400000000000000000061
:1017B00000242424247E7E24247E7E2424242400C9
:1017C0000010103C3C505038381414787810100039
:1017D0000000006262646408081010262646460075
:1017E0000030304848484830304A4A44443A3A0089
:1017F0000010101010101000000000000000000089
:101800000010102020404040404040202010100098
:101810000010100808040404040404080810100050
:101820000010105454383810103838545410100028
:10183000000000101010107C7C1010101000000030
:101840000000000000000000000808080810100058
:10185000000000000000007E7E000000000000008C
:101860000000000000000000000000000010100058
:10187000000000020204040808101020204040006C
:10188000003C3C424246465A5A626242423C3C005C
:10189000000808181808080808080808081C1C0090
:1018A000003C3C424202021C1C202040407E7E0044
:1018B000007E7E020204041C1C020242423C3C00E8
:1018C0000004040C0C141424247E7E04040404007C
:1018D000007E7E40407C7C0202020242423C3C0090
:1018E000001E1E202040407C7C424242423C3C0084
:1018F000007E7E0202040408081010101010100070
:10190000003C3C424242423C3C424242423C3C005F
:10191000003C3C424242423E3E02020404787800CF
:101920000000000000101000001010000000000077
:101930000000000000080800000808080810000067
:1019400000040408081010202010100808040400E7
:1019500000000000007E7E00007E7E00000000008F
:10196000002020101008080404080810102020008F
:1019700000202040400000000000000000000000A7
:10198000003C3C42424A4A56564C4C40403E3E0087
:101990000018182424424242427E7E4242424200C3
:1019A000007C7C424242427C7C424242427C7C003F
:1019B000003C3C424240404040404042423C3C00AF
:1019C000007C7C424242424242424242427C7C0093
:1019D000007E7E404040407C7C404040407E7E0017
:1019E000007E7E404040407C7C4040404040400083
:1019F000003E3E40404040404E4E4242423E3E004D
:101A0000004242424242427E7E42424242424200C2
:101A10000038381010101010101010101038380046
:101A2000000202020202020202020242423C3C00A6
:101A3000004242444448487070484844444242008E
:101A4000004040404040404040404040407E7E009A
:101A500000424266665A5A5A5A4242424242420042
:101A6000004242626252525A5A4A4A464642420032
:101A7000003C3C424242424242424242423C3C00E2
:101A8000007C7C424242427C7C40404040404000DE
:101A9000003C3C4242424242424A4A44443A3A00B2
:101AA000007C7C424242427C7C48484444424200A2
:101AB000003C3C424240403C3C020242423C3C0032
:101AC000007C7C101010101010101010101010005E
:101AD000004242424242424242424242423C3C0076
:101AE00000424242424242424242422424181800EA
:101AF000004242424242425A5A5A5A6666424200A2
:101B00000042424242242418182424424242420005
:101B100000444444442828101010101010101000E5
:101B2000007E7E020204041818202040407E7E00C1
:101B3000007E7E606060606060606060607E7E00ED
:101B40000000004040202010100808040402020099
:101B5000007E7E060606060606060606067E7E0051
:101B6000000000000010102828444400000000007D
:101B7000000000000000000000000000007E7E0069
:101B800000202010100808000000000000000000E5
:101B900000000000003C3C02023E3E42423E3E004D
:101BA00000404040407C7C4242424242427C7C00B9
:101BB00000000000003E3E4040404040403E3E00AD
:101BC00000020202023E3E4242424242423E3E0089
:101BD00000000000003C3C42427E7E40403E3E0011
:101BE000001C1C222220207C7C2020202020200081
:101BF00000000000003C3C424242423E3E02023CA9
:101C00003C404040407C7C42424242424242420090
:101C10000010100000303010101010101038380074
:101C200000040400003C3C0404040404044444385C
:101C30003840404040424244447878444442420064
:101C40000030301010101010101010101038380024
:101C5000000000000066665A5A5A5A5A5A42420018
:101C600000000000007C7C4242424242424242006C
:101C700000000000003C3C4242424242423C3C00E8
:101C800000000000007C7C424242427C7C4040409C
:101C900040000000003E3E424242423E3E020202FE
:101CA00002000000005E5E60604040404040400036
:101CB00000000000003E3E40403C3C02027C7C00B4
:101CC00000101010107C7C1010101012120C0C0060
:101CD000000000000042424242424246463A3A0078
:101CE00000000000004242424242422424181800F0
:101CF0000000000000424242425A5A5A5A666600A8
:101D0000000000000042422424181824244242000B
:101D100000000000004242424242423E3E02023C7B
:101D20003C000000007E7E0404181820207E7E0007
:101D3000000E0E181818187070181818180E0E00CB
:101D400000101010101010101010101010101000B3
:101D5000007070181818180E0E18181818707000E7
:101D600000000000002424545448480000000000F3
:101D70000000000A0B02090C0D0E08070304010005
:101D80000000000000000000000000000000000053
:101D90000000000000000000000000000012111010
:101DA0000000000000000000000000000000000033
:101DB00000000000000000546F75636865642064D3
:101DC00061746574696D6520627574746F6E00541A
:101DD0006F756368656420757365722073657474CC
:101DE000696E67004261636B20627574746F6E2068
:101DF000697320746F756368656400486F6D652052
:101E0000627574746F6E20697320746F7563686592
:101E100064005361766520746F2055534200546FFF
:101E200075636865642050617373776F72640054E2
:101E30006F756368656420557365726E616D6500CA
:101E40006C6F6767696E672066696C65206E616D8F
:101E50006520697320003000300070617373776F04
:101E6000726420697320696E76616C696421005523
:101E7000736572206E616D6520697320696E76618D
:101E80006C6964210048583731312077656967698A
:101E90006E6720737461727465640054696D656F58
:101EA000757420696E20636F6D6D756E6963617402
:101EB000696F6E2100576569676874207265616497
:101EC000696E6720001820205F00000000000000FD
:101ED0000000000000000000000000000000000002
:101EE00000000000000000000000000000000000F2
:101EF00000000000000000000000000000000000E2
:101F000000000000000000000000000000000000D1
:101F100000000000000000000000000000000000C1
:101F2000000000000000000000000000001C000095
:101F30001C00001C00001C00001C00001C00001CF9
:101F400000001C00001C00001C00001C00001C0005
:101F5000001C00001C00001C000018000000000015
:101F60000000000000001C00003E00003E00003E9B
:101F700000001C0000000000000000000000000045
:101F800000000000000000000000000001C0E003AD
:101F9000E1F003E1F003E1F001E0F000E07001C0E6
:101FA000E003C1E00F87C00E070000000000000042
:101FB0000000000000000000000000000000000021
:101FC0000000000000000000000000000000000011
:101FD0000000000000000000000000000000000001
:101FE00000000000000000000000000000000000F1
:101FF00038700038700070E00070E00070E0007031
:10200000E00FFFF80FFFF80FFFF800E1C000E1C09C
:1020100000E1C001C38001C38001C3800FFFF80F3E
:10202000FFF80FFFF803870003870003870003878B
:1020300000070E00070E0000000000000000000076
:102040000000000000000000000000000038000058
:102050003800003800003800007F0001FFC003FF97
:10206000C00780800700000700000700000780000D
:1020700003C00003F80001FE00007F80000FC000D5
:1020800003C00001E00000E00000E00000E0020109
:10209000C007FFC007FF8001FE00003800003800C5
:1020A0000038000038000000000000000780700FBA
:1020B000C0E00CC0E01861C0186380186380186726
:1020C00000186700186E000CDC000FDC0007B80079
:1020D000003BC00077E000766000EC3001CC3001BE
:1020E000CC30038C30038C30070C300E06600E07AA
:1020F000E01C03C000000000000000000000000021
:10210000000000000000000000000000007C000053
:10211000FF0001FF0003C7800383800383800383E4
:102120008003870001CF0001FE0000FC0001F07079
:1021300003F87003BC70071E600E0FE00E07E00E80
:1021400003C00E01C00F03E0078FE007FF7003FE1E
:102150007000F838000000000000000000000000DF
:102160000000000000000000000000000018000057
:102170003C00001E00000E000007000002000000EE
:10218000000000000000000000000000000000004F
:10219000000000000000000000000000000000003F
:1021A000000000000000000000000000000000002F
:1021B000000000000000000000000000000000001F
:1021C000000000000000000000000700000F800079
:1021D0000F00001E00003C0000380000700000707E
:1021E0000000E00000E00000E00001C00001C000CD
:1021F00001C00001C00001C00001C00001C0000119
:10220000C00001C00000E00000E00000E00000703D
:1022100000007000003800003C00001E00000F00AD
:1022200000078000030000010000600000F00000D3
:102230007800003C00001E00000E000007000007B0
:10224000000003800003800003800001C00001C083
:102250000001C00001C00001C00001C00001C000B9
:1022600001C00001C000038000038000038000075C
:1022700000000700000E00001E00003C0000780077
:1022800000F00000600000400000000000000000BE
:102290000000000000000000000000000000001C22
:1022A00000001C00001C00021C2003C9E007FFF016
:1022B00001FFC0001C0000360000770000F3800121
:1022C000E3C000E3800041000000000000000000C7
:1022D00000000000000000000000000000000000FE
:1022E00000000000000000000000000000000000EE
:1022F0000000000000000000003800003800003836
:10230000000038000038000038000038000FFFE0FF
:102310000FFFE00FFFE00038000038000038000039
:1023200038000038000038000038000000000000CD
:10233000000000000000000000000000000000009D
:10234000000000000000000000000000000000008D
:10235000000000000000000000000000000000007D
:10236000000000000000000000000000000000006D
:10237000000000000000000000000000000000005D
:102380000000000000000000000E00001F00001F01
:1023900000001F00000F00000700000E00001C00DE
:1023A0000078000070000000000000000000000045
:1023B000000000000000000000000000000000001D
:1023C0000000000000000000000000000000FF000E
:1023D00000FF0000FF0000000000000000000000FF
:1023E00000000000000000000000000000000000ED
:1023F00000000000000000000000000000000000DD
:1024000000000000000000000000000000000000CC
:1024100000000000000000000000000000000000BC
:1024200000000000000000000000000000000000AC
:10243000000000000000000000000000000000009C
:102440000000000000000000000000001C00003E32
:1024500000003E00003E00001C00000000000000E4
:102460000000000000000000000001C00003800028
:102470000380000380000700000700000700000E33
:1024800000000E00000E00000E00001C00001C00EA
:10249000001C000038000038000038000070000008
:1024A000700000700000E00000E00000E00000E0CC
:1024B0000001C00001C00001C000038000038000D3
:1024C000038000070000070000000000000000007B
:1024D0007C0001FF0003FF8003C7800783C0070162
:1024E000C00701C00E00E00E00E00E30E00E78E004
:1024F0000E78E00E78E00E30E00E00E00E00E00E08
:1025000000E00701C00701C00783C003C78003FFC5
:102510008001FF00007C00000000000000000000BF
:1025200000000000000000000000000000000000AB
:102530001C00001C00007C0000FC0003FC00079C49
:1025400000021C00001C00001C00001C00001C00FD
:10255000001C00001C00001C00001C00001C0000EF
:102560001C00001C00001C00001C00001C0003FFDD
:10257000C003FFC003FFC000000000000000000017
:10258000000000000000000000000000000000004B
:10259000FC0003FF0007FF800787C00203C00001A3
:1025A000C00001C00001C00001C00003800007801E
:1025B000000700000E00001C000038000070000042
:1025C000E00001C00003800003800007000007FF57
:1025D000E007FFE007FFE00000000000000000004F
:1025E00000000000000000000000000000000001EA
:1025F000FC000FFF000FFF800607800003C00001F2
:10260000C00001C00001C00003C000078000FF003F
:1026100000FF0000FF800007C00001E00000E000B4
:1026200000E00000E00000E00001E00403C00FFF54
:10263000800FFF0003FC000000000000000000000D
:10264000000000000000000000000000000000008A
:102650000780000F80001F80003F80003B800073D8
:102660008000F38001E38001C380038380038380C3
:102670000703800F03800E03801E03801FFFF01FDF
:10268000FFF01FFFF00003800003800003800003C1
:1026900080000380000380000000000000000000B4
:1026A0000000000000000000000000000000000327
:1026B000FF8003FF8003FF8003000003000003008E
:1026C0000003000007000007000007F00007FE00FD
:1026D00007FF00001F800007800003C00001C0004A
:1026E00001C00001C00001C00003C00C07800FFF43
:1026F000000FFE0003F800000000000000000000D2
:1027000000000000000000000000000000000000C9
:1027100003C0001FC0007FC000FC0001E00003C038
:1027200000038000070000070000067E000FFF8006
:102730000FFFC00F03C00E01E00E00E00E00E00E20
:1027400000E00E00E00700E00701C007C3C003FF80
:102750008001FF00007E000000000000000000007B
:102760000000000000000000000000000000000F5A
:10277000FFE00FFFE00FFFE00000E00001C00003FA
:1027800080000380000700000700000E00000E001C
:10279000001C00001C000038000038000038000059
:1027A000700000700000700000700000E00000E0A9
:1027B0000000E00000E00000000000000000000059
:1027C0000000000000000000000000000000000009
:1027D0007C0001FF0003FF8003C7C00703C007019F
:1027E000C00701C00701C00781C003C38003F70011
:1027F00001FE0001FF8003CFC00703C00601E00E09
:1028000000E00E00E00E00E00F01E00783C007FFCC
:10281000C003FF8000FE0000000000000000000078
:1028200000000000000000000000000000000000A8
:10283000FC0001FF0003FF800787C00701C00E01F5
:10284000C00E00E00E00E00E00E00E00E00F00E021
:102850000781E007FFE003FFE000FEE00001C000A9
:1028600001C00003C0000780000F00007E0007FCCD
:102870000007F80007C00000000000000000000092
:102880000000000000000000000000000000000048
:102890000000000000000000000000000000000038
:1028A00000003800007C00007C00007C0000380044
:1028B0000000000000000000000000000000000018
:1028C0000000000000003800007C00007C00007C5C
:1028D00000003800000000000000000000000000C0
:1028E00000000000000000000000000000000000E8
:1028F00000000000000000000000000000000000D8
:1029000000003800007C00007C00007C00003800E3
:1029100000000000000000000000000000000000B7
:102920000000000000003800007C00007C00007CFB
:1029300000003C00001C0000380000700001E000B6
:1029400001C00000000000000000000000000000C6
:102950000000000000000000000000000000000077
:10296000000000400001E0000FE0003FC000FE005A
:1029700003F8000FC0000F00000FC00007F80000B0
:10298000FE00003FC0000FE00001E000004000003A
:102990000000000000000000000000000000000037
:1029A0000000000000000000000000000000000027
:1029B0000000000000000000000000000000000017
:1029C000000000000000000FFFE00FFFE00FFFE03D
:1029D0000000000000000000000000000000000FE8
:1029E000FFE00FFFE00FFFE000000000000000002C
:1029F00000000000000000000000000000000000D7
:102A000000000000000000000000000000000000C6
:102A100000000000000000000000000000000000B6
:102A2000000400000F00000FE00007F80000FE00A7
:102A3000003F800007E00001E00007E0003FC00029
:102A4000FE0007F8000FE0000F0000040000000087
:102A50000000000000000000000000000000000076
:102A600000000000000000000000000000FE000365
:102A7000FF8003FFC00103E00000E00000E0000071
:102A8000E00000E00001C0000380000700000E002D
:102A9000001C00003C00003800003800000000006E
:102AA0000000000000003800007C00007C00007C7A
:102AB00000003800000000000000000000000000DE
:102AC000000000000000000000000000003F0000C7
:102AD000FF8001FFC001E1E00380E0038070070098
:102AE000700700700707F00E1FF00E3FF00E3C70ED
:102AF0000E78700E70700E70700E70700E70700E1A
:102B000078700E3870073FF0071FF00707E0078066
:102B10000003C00003C00001F00000FFC0007FC040
:102B2000001FC0000000000000000000007E000048
:102B30007E00007E0000FF0000F70000E70000E7D5
:102B40000001E78001C38001C38003C3C003C1C08B
:102B50000381C00381C00781E007FFE007FFE007B2
:102B6000FFE00F00F00E00700E00700E00701E00EF
:102B7000781C003800000000000000000000000089
:102B80000000000000000000000000000000000F36
:102B9000FC000FFF000FFF800E07C00E03C00E01E8
:102BA000C00E01C00E01C00E03800E07800FFF0093
:102BB0000FFF000FFF800E03C00E01E00E00E00EBD
:102BC00000E00E00E00E00E00E01E00E07C00FFF77
:102BD000C00FFF000FFC000000000000000000001C
:102BE000000000000000000000000000003F800026
:102BF0007FE001FFE003E04003C000078000070022
:102C0000000700000E00000E00000E00000E000085
:102C10000E00000E00000E00000E00000F00000766
:102C2000000007800003C00003E04001FFE000FF58
:102C3000E0003F80000000000000000000000000F5
:102C40000000000000000000000000000FF0000F76
:102C5000FE000FFF000E0F800E03800E03C00E015A
:102C6000C00E01E00E00E00E00E00E00E00E00E0FD
:102C70000E00E00E00E00E00E00E00E00E01E00E9F
:102C800001C00E03C00E03800E0F800FFF000FFE69
:102C9000000FF00000000000000000000000000035
:102CA00000000000000000000000000007FFC00757
:102CB000FFC007FFC0070000070000070000070073
:102CC0000007000007000007000007FF8007FF80E3
:102CD00007FF80070000070000070000070000074B
:102CE000000007000007000007000007FFE007FFE3
:102CF000E007FFE00000000000000000000000000E
:102D000000000000000000000000000007FFE007D6
:102D1000FFE007FFE00700000700000700000700D2
:102D20000007000007000007000007FFC007FFC002
:102D300007FFC007000007000007000007000007AA
:102D40000000070000070000070000070000070060
:102D5000000700000000000000000000000000006C
:102D6000000000000000000000000000003F8000A4
:102D7000FFC001FFE003E0C003C040078000070080
:102D8000000700000E00000E00000E00000E000004
:102D90000E00E00E00E00E00E00E00E00F00E00785
:102DA00000E00780E003C0E003E0E001FFE000FF97
:102DB000E0003F8000000000000000000000000074
:102DC0000000000000000000000000000E00E00E07
:102DD00000E00E00E00E00E00E00E00E00E00E004D
:102DE000E00E00E00E00E00E00E00FFFE00FFFE05D
:102DF0000FFFE00E00E00E00E00E00E00E00E00E1F
:102E000000E00E00E00E00E00E00E00E00E00E001C
:102E1000E00E00E0000000000000000000000000E4
:102E200000000000000000000000000007FFC007D5
:102E3000FFC007FFC000380000380000380000382D
:102E4000000038000038000038000038000038006A
:102E5000003800003800003800003800003800005A
:102E6000380000380000380000380007FFC007FFB6
:102E7000C007FFC0000000000000000000000000CC
:102E800000000000000000000000000001FFC00181
:102E9000FFC001FFC00001C00001C00001C000016F
:102EA000C00001C00001C00001C00001C00001C09D
:102EB0000001C00001C00001C00001C00001C0004D
:102EC00001C00001C00403C00707800FFF0007FE18
:102ED0000001FC00000000000000000000000000F5
:102EE0000000000000000000000000000E01E00EE5
:102EF00003C00E03800E07800E0F000E0E000E1C86
:102F0000000E3C000E78000EF0000FE0000FE00015
:102F10000FF0000EF8000E7C000E3E000E1E000E9C
:102F20000F000E07800E03C00E03C00E01E00E005E
:102F3000E00E00F0000000000000000000000000B3
:102F40000000000000000000000000000700000773
:102F5000000007000007000007000007000007004E
:102F6000000700000700000700000700000700003E
:102F70000700000700000700000700000700000727
:102F8000000007000007000007000007FFE007FF40
:102F9000E007FFE00000000000000000000000006B
:102FA00000000000000000000000000003006003BB
:102FB00080F00780F00780F006C1B006C1B006E3DC
:102FC000B00663300663300677300636300636309A
:102FD000063E30061C380E1C380E00380E00380E27
:102FE00000380E00380E00380E00380E00380E0083
:102FF000380E003800000000000000000000000053
:1030000000000000000000000000000007807007C2
:10301000C07007C07007E07007E07007F0700770BD
:1030200070077070073870073870071C70071C70C5
:10303000070E70070E700706700707700707700706
:1030400003F00703F00701F00701F00700F00700A5
:10305000F00700F000000000000000000000000089
:10306000000000000000000000000000007C0001E3
:10307000FF0003FF800783C00F01E00E00E00E0099
:10308000E01C00F01C00701C00701C00701C007024
:103090001C00701C00701C00701C00701C00F00EE6
:1030A00000E00E00E00F01E00783C003FF8001FF96
:1030B00000007C0000000000000000000000000094
:1030C00000000000000000000000000007FC0007F6
:1030D000FF0007FF800703C00701E00700E00700CB
:1030E000E00700E00700E00700E00701E00703C099
:1030F00007FF8007FF0007FC00070000070000072C
:10310000000007000007000007000007000007009C
:1031100000070000000000000000000000000000A8
:10312000000000000000000000000000007C000122
:10313000FF0003FF800783C00F01E00E00E00E00D8
:10314000E01C00F01C00701C00701C00701C007063
:103150001C00701C00701C00701C00701C00F00E25
:1031600000E00E00E00F01E00783C003FF8001FFD5
:103170000000FE00003800003C00001F00000FE0CF
:103180000007E00000C00000000000000FF8000F82
:10319000FE000FFF000E07800E03C00E01C00E01DF
:1031A000C00E01C00E01C00E01C00E03800E0780CC
:1031B0000FFF000FFE000FFC000E1E000E0E000E93
:1031C00007000E07000E03800E03800E01C00E01E3
:1031D000C00E00E000000000000000000000000041
:1031E000000000000000000000000000007F00015F
:1031F000FFC003FFC003C0800700000700000700F6
:103200000007000007800003E00001F80000FE0056
:10321000003F80000FC00003C00001E00000E0009C
:1032200000E00000E00401E00F03C00FFFC007FF53
:103230008001FE000000000000000000000000000F
:103240000000000000000000000000000FFFE00F81
:10325000FFE00FFFE00038000038000038000038C1
:103260000000380000380000380000380000380046
:103270000038000038000038000038000038000036
:1032800038000038000038000038000038000038EE
:1032900000003800000000000000000000000000F6
:1032A0000000000000000000000000000E00E00E22
:1032B00000E00E00E00E00E00E00E00E00E00E0068
:1032C000E00E00E00E00E00E00E00E00E00E00E078
:1032D0000E00E00E00E00E00E00E00E00E00E00E3A
:1032E00000E00F01E00701C00783C003FF8001FF7A
:1032F0000000FE00000000000000000000000000D0
:103300000000000000000000000000001C00701C15
:1033100000700E00E00E00E00E00E00E00E007017D
:10332000C00701C00701C00701C003838003838079
:1033300003838003878001C70001C70001C7000025
:10334000EE0000EE0000EE00007C00007C00007C3F
:1033500000007800000000000000000000000000F5
:103360000000000000000000000000000E00E00E61
:1033700000E00E00E00E00E00E00E00E00E00E00A7
:10338000E00E00E00E00E00E38E00E38E00E38E00F
:103390000E6CE00E6CE00E6CE00EC6E00EC6E00EA9
:1033A000C6E00F83E00F83E00F83E00F01E0070129
:1033B000C00701C000000000000000000000000085
:1033C0000000000000000000000000001E00F00EE1
:1033D00000E00F01E00701C003838003838001C781
:1033E0000001EF0000EE0000FE00007C000038004D
:1033F000003800007C0000FE0000EE0001C7000362
:10340000C7800383800783C00701C00F01E00E005F
:10341000E01E00F0000000000000000000000000BE
:103420000000000000000000000000001C00700E02
:1034300000E00E00E00F01E00701C00783C0038336
:103440008003C38001C70001EF0000EE0000FE0012
:10345000007C00007C0000380000380000380000CC
:10346000380000380000380000380000380000380C
:103470000000380000000000000000000000000014
:1034800000000000000000000000000007FFE0074F
:10349000FFE007FFE00001C00003C0000380000759
:1034A00000000F00000E00001E00003C000038006D
:1034B00000780000700000E00001E00001C000039F
:1034C000C0000380000780000700000FFFE00FFF2F
:1034D000E00FFFE00000000000000000000000001E
:1034E00000000000000000000001FF0001FF0001DB
:1034F000C00001C00001C00001C00001C00001C047
:103500000001C00001C00001C00001C00001C000F6
:1035100001C00001C00001C00001C00001C00001E5
:10352000C00001C00001C00001C00001C00001C016
:103530000001C00001C00001C00001C00001C000C6
:1035400001C00001FF0001FF0003800003C0000173
:10355000C00001C00000E00000E00000E0000070DA
:10356000000070000070000070000038000038009B
:10357000003800001C00001C00001C00000E0000B1
:103580000E00000E00000700000700000700000703
:10359000000003800003800003800001C00001C020
:1035A0000001C00000E00000E000FF8000FF80009C
:1035B0000380000380000380000380000380000379
:1035C00080000380000380000380000380000380EC
:1035D000000380000380000380000380000380005C
:1035E0000380000380000380000380000380000349
:1035F00080000380000380000380000380000380BC
:1036000000038000FF8000FF800000000038000001
:103610007C00007C0000EE0000EE0001C70001C746
:103620000003C7800383800783C00701C00F01E048
:103630000200800000000000000000000000000008
:10364000000000000000000000000000000000007A
:10365000000000000000000000000000000000006A
:10366000000000000000000000000000000000005A
:10367000000000000000000000000000000000004A
:10368000000000000000000000000000000000003A
:10369000000000000000000000000000000000002A
:1036A00000000000000000000000000000003FFFDC
:1036B000F83FFFF83FFFF8000000000000000000A6
:1036C000000000000000000000000000007C00007E
:1036D000FE0001C70001830001830001830001C7D0
:1036E0000000FE00007C0000000000000000000060
:1036F00000000000000000000000000000000000CA
:1037000000000000000000000000000000000000B9
:1037100000000000000000000000000000000000A9
:103720000000000000000000000000000000000099
:103730000000000000000000000000000000000089
:103740000000FE0001FF8001FFC00183E00001E0F6
:103750000000E00000E0007FE001FFE003FFE00781
:10376000C0E00700E00700E00700E00780E003FF9B
:10377000E001FFE0007FC00000000000000000004A
:103780000000000000000000000700000700000724
:103790000000070000070000070000070000070006
:1037A00000077E0007FF0007FF800783C00701C0F6
:1037B0000701E00700E00700E00700E00700E0077E
:1037C00000E00700E00701E00701C00707C007FFAE
:1037D0008007FF0003FC0000000000000000000064
:1037E00000000000000000000000000000000000D9
:1037F00000000000000000000000000000000000C9
:1038000000003FC000FFE003FFE003E0400780004E
:103810000700000E00000E00000E00000E00000E5B
:1038200000000E000007000007800003E06003FFB7
:10383000E000FFE0003FC0000000000000000000CA
:103840000000000000000000000000E00000E000B8
:1038500000E00000E00000E00000E00000E0000008
:10386000E0007EE000FFE001FFE003C1E00380E054
:103870000780E00700E00700E00700E00700E0073E
:1038800000E00700E00780E00380E003E0E001FFE4
:10389000E000FFE0003F80000000000000000000AA
:1038A0000000000000000000000000000000000018
:1038B0000000000000000000000000000000000008
:1038C00000007E0001FF0003FF8007C3C00701C0A6
:1038D0000700E00E00E00FFFE00FFFE00FFFE00E3B
:1038E00000000E000007000007000007C0C003FF33
:1038F000C001FFC0007F00000000000000000000C9
:10390000000000000000000000000FC0003FF000B9
:103910007FF000783000F00000E00000E00000E000
:10392000000FFFC00FFFC00FFFC000E00000E0006D
:1039300000E00000E00000E00000E00000E0000027
:10394000E00000E00000E00000E00000E00000E037
:103950000000E00000E000000000000000000000A7
:103960000000000000000000000000000000000057
:103970000000000000000000000000000000007FC8
:103980000001FFC003FFC00781C00701C00F01C0D5
:103990000E01C00E01C00E01C00E01C00E01C00E0E
:1039A00001C00701C00783C003FFC001FFC000FDC5
:1039B000C00001C00001C00003C006078007FF80EF
:1039C00007FF0003FC0000000007000007000007DD
:1039D00000000700000700000700000700000700C4
:1039E0000007FC0007FF0007FF800707800703C0F0
:1039F0000701C00701C00701C00701C00701C007D8
:103A000001C00701C00701C00701C00701C00701CD
:103A1000C00701C00701C000000000000000000056
:103A20000000000000000000000000000060000036
:103A3000F00000F000006000000000000000000046
:103A4000000FF0000FF0000FF00000700000700099
:103A50000070000070000070000070000070000036
:103A60007000007000007000007000007820003FBF
:103A7000E0003FE0000FC000000000000000000078
:103A80000000000000000000000000000006000030
:103A90000F00000F00000600000000000000000002
:103AA0000003FF8003FF8003FF800003800003808A
:103AB0000003800003800003800003800003800077
:103AC0000380000380000380000380000380000364
:103AD00080000380000380000380000380060F0045
:103AE0000FFF000FFE0003F80007000007000007AB
:103AF00000000700000700000700000700000700A3
:103B0000000701E00703C0070780070F00071E003A
:103B1000073C0007780007F00007E00007F0000707
:103B20007800071C00070F00070700070380070342
:103B3000C00701E00700F0000000000000000000E6
:103B400000000000000000000007F80007F8000770
:103B5000F800003800003800003800003800003855
:103B6000000038000038000038000038000038003D
:103B7000003800003800003800003800003800002D
:103B80003800003800003800003800003C10001FEA
:103B9000F0001FF00007E00000000000000000003F
:103BA0000000000000000000000000000000000015
:103BB0000000000000000000000000000000000005
:103BC0000007E3C00FFFE00FFFE00E3CF00E1C709B
:103BD0000E1C700E1C700E1C700E1C700E1C700ED5
:103BE0001C700E00700E00700E00700E00700E0043
:103BF000700E00700E007000000000000000000059
:103C000000000000000000000000000000000000B4
:103C100000000000000000000000000000000000A4
:103C20000000FE0003FF8003FFC00383C00381E0A8
:103C30000380E00380E00380E00380E00380E00392
:103C400080E00380E00380E00380E00380E0038005
:103C5000E00380E00380E0000000000000000000BE
:103C60000000000000000000000000000000000054
:103C70000000000000000000000000000000000044
:103C800000007C0001FF0003FF800783C00701C024
:103C90000F01E00E00E00E00E00E00E00E00E00E6E
:103CA00000E00E00E00701E00701C00783C003FF4A
:103CB0008001FF00007C0000000000000000000008
:103CC00000000000000000000000000000000000F4
:103CD00000000000000000000000000000000000E4
:103CE0000001FC0007FF0007FF800707C00701C0B5
:103CF0000701C00700E00700E00700E00700E00759
:103D000000E00700E00701E00701C00783C007FFEC
:103D10008007FF00077C0007000007000007000085
:103D2000070000070000070000000000000000007E
:103D30000000000000000000000000000000000083
:103D400000003F8000FFE001FFE003E0E00380E0CF
:103D50000380E00700E00700E00700E00700E0075D
:103D600000E00700E00780E00380E003C1E001FF1E
:103D7000E000FFE0003EE00000E00000E00000E0C6
:103D80000000E00000E00000E00000000000000093
:103D90000000000000000000000000000000000023
:103DA0000000FFC007FFC007FFC0078080070000BA
:103DB00007000007000007000007000007000007D9
:103DC00000000700000700000700000700000700D0
:103DD00000070000070000000000000000000000D5
:103DE00000000000000000000000000000000000D3
:103DF00000000000000000000000000000000000C3
:103E00000000FF0001FF8003FF80078180070000A2
:103E100007000007C00003F00001FE00007F000063
:103E20001F800003C00001C00001C00603C007FFDF
:103E30008007FF8001FE000000000000000000007D
:103E40000000000000000000000000000000000072
:103E5000000000E00000E00000E00000E00000E002
:103E6000000FFFE00FFFE00FFFE000E00000E000C8
:103E700000E00000E00000E00000E00000E00000E2
:103E8000E00000E00000E00000E00000F020007F23
:103E9000E0007FE0001FC000000000000000000004
:103EA0000000000000000000000000000000000012
:103EB0000000000000000000000000000000000002
:103EC000000701C00701C00701C00701C00701C00A
:103ED0000701C00701C00701C00701C00701C007F3
:103EE00001C00701C00701C00781C003C1C003FFB3
:103EF000C001FFC0007F00000000000000000000C3
:103F000000000000000000000000000000000000B1
:103F100000000000000000000000000000000000A1
:103F2000001C00701E00F00E00E00E00E00F01E02B
:103F30000701C00701C00783C00383800383800398
:103F4000C70001C70001EF0000EE0000FE00007C8A
:103F500000007C00007C0000000000000000000069
:103F60000000000000000000000000000000000051
:103F70000000000000000000000000000000000041
:103F8000001C00701C00701C00701C00701C107065
:103F90000C38E00E38E00E38E00E28E00E6CE00E33
:103FA0006CE00644C006C6C006C7C00787C00783CA
:103FB000C0078380030380000000000000000000B1
:103FC00000000000000000000000000000000000F1
:103FD00000000000000000000000000000000000E1
:103FE000001E01E00F03C007038003878003CF009A
:103FF00001EE0000FC00007C00007800007C000066
:10400000FE0001EE0001C70003C3800783C00F015B
:10401000C00E01E01E00F0000000000000000000E3
:104020000000000000000000000000000000000090
:104030000000000000000000000000000000000080
:10404000000E00700F00F00700E00700E00780E0BE
:104050000381E00381C003C1C001C3C001C380016B
:10406000E38000E78000F780007700007F00003EDB
:1040700000003E00001E00003C00003C00007800F4
:104080000FF0000FF0000FC0000000000000000063
:104090000000000000000000000000000000000020
:1040A0000007FFC007FFC007FFC0000380000780B4
:1040B000000F00001E00001C000038000078000007
:1040C000F00000E00001E00003C00003800007FFF3
:1040D000C007FFC007FFC000000000000000000094
:1040E00000000000000000000000000000000000D0
:1040F000700000E00000E00000E00000E00000E0F0
:104100000000E00000E00000E00000E00000E0004F
:1041100000E00001C0000F80000F800001C000001F
:10412000E00000E00000E00000E00000E00000E04F
:104130000000E00000E00000E00000E00000E0001F
:10414000007000007F80001F80001C00001C000029
:104150001C00001C00001C00001C00001C00001CB7
:1041600000001C00001C00001C00001C00001C00C3
:10417000001C00001C00001C00001C00001C0000B3
:104180001C00001C00001C00001C00001C00001C87
:1041900000001C00001C00001C00001C00001C0093
:1041A000001C00001C00001C0000FC0000FF0000C0
:1041B00007000003800003800003800003800003E9
:1041C00080000380000380000380000380000380E0
:1041D0000003800001C00000F80000F80001C000EA
:1041E000038000038000038000038000038000033D
:1041F00080000380000380000380000380000380B0
:1042000000070000FF0000FC0000000001E02003A8
:10421000F03007FC700E3FE00C0FC0040780000078
:10422000000000000000000000000000000000008E
:10423000000000000000000000000000000000007E
:10424000000000000000000000000000000000006E
:10425000000000000000000000000000000000005E
:10426000000000000000000000283C205F0000006B
:10427000000000000000000000000000000000003E
:10428000000000000000000000000000000000002E
:10429000000000000000000000000000000000001E
:1042A000000000000000000000000000000000000E
:1042B00000000000000000000000000000000000FE
:1042C00000000000000000000000000000000000EE
:1042D00000000000000000000000000000000000DE
:1042E00000000000000000000000000000000000CE
:1042F00000000000000000000000000000000000BE
:1043000000000000000000000000000000000000AD
:10431000000000000000000000000000000000009D
:10432000000000000000000000000000000000008D
:10433000000000000000000000000000000000007D
:10434000000000000000000000000000000000006D
:10435000000000000000000000000000000000005D
:10436000000000000000000000000000000000004D
:10437000000000000000000000000000000000003D
:10438000000000000000000000000000000000002D
:10439000000000000000000000000000000000001D
:1043A000000000000000000000000000000000000D
:1043B00000000000000000000018000000003C00A9
:1043C0000000003C000000003C000000003C000039
:1043D00000003C000000003C000000003C00000029
:1043E000003C000000003C000000003C0000000019
:1043F0003C000000003C000000003C000000003CCD
:10440000000000003C000000003C000000003C00F8
:104410000000003C000000003C000000003C0000E8
:1044200000001C0000000018000000000000000058
:10443000000000000000080000000018000000005C
:104440003C000000003C000000003C000000003C7C
:10445000000000003C000000003C000000003C00A8
:104460000000003C000000003C000000003C000098
:1044700000003C000000003C000000003C00000088
:10448000003C000000003C000000003C0000000078
:104490003C000000003C000000003C000000003C2C
:1044A00000000000180000000000000000000000F4
:1044B00000000000000000000000000000000000FC
:1044C00000000000000000000000000000000001EB
:1044D000FF81FF8003FFC3FFC007FFE7FFE003FF8B
:1044E000C3FFC001FF81FF8000000000000000004A
:1044F00000000000000000000000000000000000BC
:1045000000000000000000000000000000000000AB
:10451000000000000000000000000000000000009B
:10452000000000000000000000000000000000008B
:10453000000000000000000000000000000000007B
:10454000000000000000000000000000000000006B
:10455000000000000000000000000000000000005B
:10456000000000000000000000000000000000004B
:10457000000000000000000000000000000000003B
:10458000000000000000000000000000000000002B
:10459000000000000000000000000000000000001B
:1045A000000000000000000000000000000000000B
:1045B00000000000000000000000000000000000FB
:1045C00000000000000000000000000000000000EB
:1045D00000000000000000000000000000000000DB
:1045E00000000000000000000000000000000000CB
:1045F000000000000000000000000001FF81FF80BB
:1046000003FFC3FFC007FFE7FFE003FFC3FFC019BD
:10461000FF99FF983C003C003C3C003C003C3C00C7
:104620003C003C3C003C003C3C003C003C3C003C32
:10463000003C3C003C003C3C003C003C3C003C005E
:104640003C3C003C003C3C003C003C3C003C003C12
:104650003C003C003C3C003C003C3C003C003C3C02
:10466000003C003C3C003C003C3C003C003C3C002E
:104670003C003C3C003C003C1C0018003809FFDBBF
:10468000FFD803FFE7FFE003FFE7FFE00BFFCBFFEF
:10469000D01C001800183C003C003C3C003C003C96
:1046A0003C003C003C3C003C003C3C003C003C3CB2
:1046B000003C003C3C003C003C3C003C003C3C00DE
:1046C0003C003C3C003C003C3C003C003C3C003C92
:1046D000003C3C003C003C3C003C003C3C003C00BE
:1046E0003C3C003C003C3C003C003C3C003C003C72
:1046F0003C003C003C3C003C003C18FF99FF180388
:10470000FFC3FFC007FFE7FFE003FFC3FFC001FFD8
:1047100081FF800000000000000000000000000099
:104720000000000000000001FF81FF8003FFC3FFC5
:10473000C007FFE7FFE003FFC3FFC019FF99FF8039
:104740003C003C00003C003C00003C003C00003CC5
:10475000003C00003C003C00003C003C00003C00F1
:104760003C00003C003C00003C003C00003C003CA5
:1047700000003C003C00003C003C00003C003C00D1
:10478000003C003C00003C003C00003C003C0000C1
:104790003C003C00003C003C00003C003C00003C75
:1047A000003C00001C0018000009FFDBFFC003FFF5
:1047B000E7FFE007FFE7FFE003FFCBFFD0000018B3
:1047C000001800003C003C00003C003C00003C00A5
:1047D0003C00003C003C00003C003C00003C003C35
:1047E00000003C003C00003C003C00003C003C0061
:1047F000003C003C00003C003C00003C003C000051
:104800003C003C00003C003C00003C003C00003C04
:10481000003C00003C003C00003C003C00003C0030
:104820003C00003C003C00FF99FF1803FFC3FFC0A1
:1048300007FFE7FFE003FFC3FFC001FF81FF800028
:104840000000000000000000000000000000000068
:1048500000000001FF80000003FFC0000007FFE030
:10486000000003FFC0000019FF9800003C003C005E
:10487000003C003C01003C003C03803C003C0380C9
:104880003C003C07803C003C0F803C003C0F003C5F
:10489000003C1F003C003C1E003C003C3E003C0035
:1048A0003C3C003C003C78003C003C78003C003C38
:1048B000F0003C003CF0003C003DE0003C003DE0EE
:1048C000003C003CC0003C003DC0003C003C0000FF
:1048D0001C0018000009FFDBFFC003FFE7FFE00733
:1048E000FFE7FFE003FFCBFFD00000180018000037
:1048F0003C003C0001BC003C0003BC003C0003BC8D
:10490000003C0007BC003C000FBC003C000F3C001A
:104910003C001F3C003C001E3C003C003E3C003C78
:10492000003C3C003C00783C003C00783C003C00F3
:10493000F03C003C01F03C003C01E03C003C01E06C
:104940003C003C01C03C003C01C03C003C00003C41
:10495000003C000019FF18000003FFC0000007FF23
:10496000E0000003FFC0000001FF80000000000025
:104970000000000000000000000000000000000136
:10498000FF80000003FFC0000007FFE0000003FFFE
:10499000C0000019FF9800003C003C00003C003CB7
:1049A00000003C003C00003C003C00003C003C009F
:1049B000003C003C00003C003C00003C003C00008F
:1049C0003C003C00003C003C00003C003C00003C43
:1049D000003C00003C003C00003C003C00003C006F
:1049E0003C00003C003C00003C003C00003C003C23
:1049F00000003C003C00003C003C00001C001C008F
:104A00000009FFD8000003FFE0000003FFE0000002
:104A10000BFFC000001C000000003C000000003C38
:104A20000001C0003C0001C0003C0001E0003C006F
:104A300001E0003C0001F0003C0000F0003C000000
:104A4000F8003C000078003C00003C003C00003EC8
:104A5000003C00001E003C00001F003C00000F0056
:104A60003C00000F803C000007803C000003803CBD
:104A7000000003803C000001803C0000000018FFA3
:104A800081FC0003FFC3FFC007FFE7FFE003FFC394
:104A9000FFC001FF81FF8000000000000000000057
:104AA0000000000000000000000000000000000006
:104AB00000000000000000000000000000000000F6
:104AC00000000000000000000000000001000000E5
:104AD0000003800000000380000000078000000049
:104AE0000F800000000F000000001F000000001EEB
:104AF000000000003E000000003C000000007800C4
:104B00000000007800000000F000000001F000004C
:104B10000001E000000001E000000001C000000012
:104B200001C0000000008000000000000000000044
:104B30000000000000000000000000000000000075
:104B40000000000000000000000000000000000065
:104B50000000000000000000000000000000000055
:104B60000000000000000000000000000000000045
:104B70000000000000000000000000000000000035
:104B80000000000000000000000000000000000025
:104B90000000000000000000000000000000000015
:104BA0000000000000000000000000000000000005
:104BB00000000000000000000000000000000000F5
:104BC00000000000000000000000000000000000E5
:104BD00000000000000000000001FF80000003FF53
:104BE000C0000007FFE0000003FFC0000001FF80DD
:104BF00000000000000001800000000380000000B1
:104C00000380000000078000000007800000000F04
:104C1000000000000F000000001E000000003E0029
:104C20000000003C000000007C0000000078000054
:104C30000000F800000000F000000001E0000000AB
:104C400001E000000001C000000001C00000000001
:104C500080000000000000000000000000000000D4
:104C60000000000000000000000000000000000044
:104C70000000000000000001C000000001C00000B2
:104C80000001E000000001E000000000F000000072
:104C900000F00000000078000000007C0000000030
:104CA0003C000000003E000000001E000000001F4D
:104CB000000000000F0000000007800000000780D7
:104CC000000000038000000003800000000180005D
:104CD000000000000000000001FF00000003FFC012
:104CE000000007FFE0000003FFC0000001FF80009C
:104CF00000000000000000000000000000000000B4
:104D000000000001FF80000003FFC0000007FFE07B
:104D1000000003FFC0000001FF8000000000000051
:104D2000000000018000000001C000000001C00080
:104D3000000001E000000001E000000000F00000C1
:104D40000000F80000000078000000007C00000077
:104D5000003C000000003E000000001E00000000BB
:104D60000F000000000F0000000007800000000797
:104D700080000000038000000003800000000100AC
:104D80000000000000000000000000000000000023
:104D90000000000000000000000000000000000013
:104DA00000000000000003800000000380000000FD
:104DB000078000000007800000000F000000000FC7
:104DC000000000001E000000001E000000003C006B
:104DD0000000007C000000007800000000F80000E7
:104DE0000000F000000001F000000001E000000001
:104DF00001C000000001C0000000018000000000B0
:104E0000000000FF80000003FFC0000007FFE0007B
:104E10000003FFC0000001FF800000000000000050
:104E20000000000000000000000000000000000082
:104E30000000000000000000000000000000000072
:104E4000000000000018000000003C000000803C52
:104E5000010001C03C038001E03C038001E03C070D
:104E60008001F03C0F8000F03C0F0000F83C1F0078
:104E700000783C1E00003C3C3E00003C3C3C0000F6
:104E80001E3C7800001F3C7800000F3CF000000F33
:104E9000BCF0000007BDE0000007BDE0000003BC5F
:104EA000C0000001BDC00000003C00000000180070
:104EB0000001FFDBFFC003FFE7FFE007FFE7FFE0C4
:104EC00003FFCBFFC0000018000000003C00000002
:104ED00001BDC0000003BDC0000003BDE00000072D
:104EE000BDE000000FBCF000000F3CF000001F3CD4
:104EF000F800001E3C7800003E3C3C00003C3C3E7C
:104F00000000783C1E0000783C1F0000F03C0F00C1
:104F100001F03C0F8001E03C078001E03C03800190
:104F2000C03C038001C03C018000003C0000000048
:104F30001800000000000000000000000000000059
:104F40000000000000000000000000000000000061
:104F50000000000000000000000000000000000051
:104F60000000000000000000000000000000000041
:104F70000018000000003C000000003C00000000A1
:104F80003C000000003C000000003C000000003C31
:104F9000000000003C000000003C000000003C005D
:104FA0000000003C000000003C000000003C00004D
:104FB00000003C000000003C000000003C0000003D
:104FC000003C000000003C000000003C000000002D
:104FD0003C000000003C0000000018000001FFDB66
:104FE000FFC003FFE7FFE007FFE7FFE003FFCBFFA2
:104FF000C0000018000000003C000000003C000061
:1050000000003C000000003C000000003C000000EC
:10501000003C000000003C000000003C00000000DC
:105020003C000000003C000000003C000000003C90
:10503000000000003C000000003C000000003C00BC
:105040000000003C000000003C000000003C0000AC
:1050500000003C000000003C0000000018000000C0
:105060000000000000000000000000000000000040
:105070000000000000000000000000000000000030
:105080000000000000000000000000000000000020
:105090000000000000000000000000000000000010
:1050A0000000000000000000000000000000000000
:1050B00000000000000000000000000000000000F0
:1050C00000000000000000000000000000000000E0
:1050D00000000000000000000000000000000000D0
:1050E00000000000000000000000000000000000C0
:1050F00000000000000000000000000000000000B0
:10510000000000000000000000000000000000009F
:10511000000000000000000000000000000000008F
:10512000000000000000000001800000000380007B
:105130000000038000000007800000000F800000D6
:10514000000F000000001F000000001E0000000013
:105150003E000000003C00000000780000000078E5
:1051600000000000F000000001F000000001E0007D
:10517000000001E000000001C000000001C00000CC
:10518000000000000000000000000000000000001F
:10519000000000000000000000000000000000000F
:1051A00000000000000000000000000000000000FF
:1051B00000000000000000000000000000000000EF
:1051C00000000000000000000000000000000000DF
:1051D00000000000000000000000000000000000CF
:1051E00000000000000000000000000000000000BF
:1051F00000000000000000000000000000000000AF
:10520000000000000000000000000000000000009E
:10521000000000000000000000000000000000008E
:10522000000000000000000000000000000000007E
:10523000000000000001FFC3FFC003FFE7FFE0071D
:10524000FFE7FFE003FFC3FFC00000000000000015
:10525000000000000000000000000000000000004E
:10526000000000000000000000000000000000003E
:10527000000000000000000000000000000000002E
:10528000000000000000000000000000000000001E
:10529000000000000000000000000000000000000E
:1052A00000000000000000000000000000000000FE
:1052B00000000000000000000000000000000000EE
:1052C00000000000000000000000000000000000DE
:1052D00000000000000000000000000000000000CE
:1052E00000000000000000000000000000000000BE
:1052F00000000000000000000000000000000000AE
:10530000000000000000000000000000000000009D
:10531000000000000000000000000000000000008D
:10532000000000000000000000000000000000007D
:10533000000000000000000000000000000000006D
:10534000000000000000000000000000000000005D
:10535000000000000000000000000000000000004D
:10536000000000000000000000000000000000003D
:10537000000000000000000000000000000000002D
:10538000000000000000000000000000000000001D
:10539000000000000000000000000000000000000D
:1053A00000000000000000000000000000000000FD
:1053B00000000000000000000000000000000000ED
:1053C00000000000000000000000000000000000DD
:1053D00000000000000000000000000000000000CD
:1053E00018000000003C000000003C000000003CF1
:1053F0000000000018000000000000000000000095
:10540000000000000000000000000000000000009C
:10541000000000000000000000000000000000008C
:10542000000000000000000000000000010000007B
:1054300000038000000003800000000780000000DF
:105440000F800000000F000000001F000000001E81
:10545000000000003E000000003C0000000078005A
:105460000000007800000000F000000001F00000E3
:105470000001E000000001E000000001C0000000A9
:1054800001C00000000080000000000000000000DB
:10549000000000000000000000000000000000000C
:1054A000000000000000000000000000018000007B
:1054B000000380000000038000000007800000005F
:1054C0000F800000000F000000001F000000001E01
:1054D000000000003E000000003C000000007800DA
:1054E0000000007800000000F000000001F0000063
:1054F0000001E000000001E000000001C000000029
:1055000001C00000000000000000000000000000DA
:10551000000000000000000000000000000000008B
:10552000000000000000000000000000000000007B
:105530000000000000000001FF81FF8003FFC3FFA7
:10554000C007FFE7FFE003FFC3FFC019FF81FF981B
:105550003C0000003C3C0000013C3C0000033C3CA3
:105560000000033C3C0000073C3C00000F3C3C00BA
:10557000000F3C3C00001F3C3C00001E3C3C000077
:105580003E3C3C00003C3C3C0000783C3C00007849
:105590003C3C0000F03C3C0001F03C3C0001E03CA5
:1055A0003C0001E03C3C0001C03C3C0001C03C3CF4
:1055B0000000803C1C0000003808000000180000BB
:1055C000000000000000000008000000101C0000A7
:1055D00000183C0000003C3C0180003C3C03800083
:1055E0003C3C0380003C3C0780003C3C0F80003C7E
:1055F0003C0F00003C3C1F00003C3C1E00003C3CBB
:105600003E00003C3C3C00003C3C7800003C3C78C8
:1056100000003C3CF000003C3CF000003C3CE00062
:10562000003C3CE000003C3CC000003C3CC00000B2
:105630003C3C0000003C183F81FF1803FFC3FFC043
:1056400007FFE7FFE003FFC3FFC001FF81FF80000A
:10565000000000000000000000000000000000004A
:1056600000000001FF80000003FFC0000007FFE012
:10567000000003FFC0000001FF98000000003C0094
:105680000000003C000000003C000000003C000066
:1056900000003C000000003C000000003C00000056
:1056A000003C000000003C000000003C0000000046
:1056B0003C000000003C000000003C000000003CFA
:1056C000000000003C000000003C000000003C0026
:1056D0000000003C000000003C000000003C000016
:1056E00000001C0000000018000000000000000086
:1056F000000000000000080000000018000000008A
:105700003C000000003C000000003C000000003CA9
:10571000000000003C000000003C000000003C00D5
:105720000000003C000000003C000000003C0000C5
:1057300000003C000000003C000000003C000000B5
:10574000003C000000003C000000003C00000000A5
:105750003C000000003C000000003C000000003C59
:10576000000000FF99FF0003FFC3FFC007FFE7FF32
:10577000E003FFC3FFC001FF81FF800000000000C5
:105780000000000000000000000000000000000118
:10579000FF81FF8003FFC3FFC007FFE7FFE003FFB8
:1057A000C3FFC001FF81FF98000000003C00000023
:1057B000003C000000003C000000003C0000000035
:1057C0003C000000003C000000003C000000003CE9
:1057D000000000003C000000003C000000003C0015
:1057E0000000003C000000003C000000003C000005
:1057F00000003C000000003C000000003C000000F5
:10580000003C000000003C000000003C00000000E4
:105810003801FFC3FFD803FFE7FFE003FFE7FFE026
:105820000BFFC3FFC01C000000003C000000003C58
:10583000000000003C000000003C000000003C00B4
:105840000000003C000000003C000000003C0000A4
:1058500000003C000000003C000000003C00000094
:10586000003C000000003C000000003C0000000084
:105870003C000000003C000000003C000000003C38
:10588000000000003C000000003C0000000018FF89
:1058900081FF0003FFC3FFC007FFE7FFE003FFC373
:1058A000FFC001FF81FF8000000000000000000039
:1058B000000000000000000000000001FF81FF80E8
:1058C00003FFC3FFC007FFE7FFE003FFC3FFC00103
:1058D000FF81FF98000000003C000000003C000039
:1058E00000003C000000003C000000003C00000004
:1058F000003C000000003C000000003C00000000F4
:105900003C000000003C000000003C000000003CA7
:10591000000000003C000000003C000000003C00D3
:105920000000003C000000003C000000003C0000C3
:1059300000003C000000003C000000003801FFC3F4
:10594000FFD803FFE7FFE007FFE7FFE003FFC3FF28
:10595000D00000000018000000003C000000003CE7
:10596000000000003C000000003C000000003C0083
:105970000000003C000000003C000000003C000073
:1059800000003C000000003C000000003C00000063
:10599000003C000000003C000000003C0000000053
:1059A0003C000000003C000000003C000000003C07
:1059B000000000003C000000003C00FF81FF1803D5
:1059C000FFC3FFC007FFE7FFE003FFC3FFC001FF06
:1059D00081FF8000000000000000000000000000C7
:1059E00000000000000000000000000000000000B7
:1059F0000000000000000000000000180000001877
:105A00003C0000003C3C0000003C3C0000003C3CF2
:105A10000000003C3C0000003C3C0000003C3C001E
:105A200000003C3C0000003C3C0000003C3C00000E
:105A3000003C3C0000003C3C0000003C3C000000FE
:105A40003C3C0000003C3C0000003C3C0000003CB2
:105A50003C0000003C3C0000003C3C0000003C3CA2
:105A60000000003C1C0000003809FFC3FFD803FF02
:105A7000E7FFE007FFE7FFE003FFC3FFD000000000
:105A80000018000000003C000000003C0000000086
:105A90003C000000003C000000003C000000003C16
:105AA000000000003C000000003C000000003C0042
:105AB0000000003C000000003C000000003C000032
:105AC00000003C000000003C000000003C00000022
:105AD000003C000000003C000000003C0000000012
